S00A000043504E2E73333709
S3150800000000100020B9100008497D00084D7D000841
S315080000102D800008517D0008597D0008B51000089C
S31508000020B5100008B5100008B5100008B51000088E
S315080000305D7D0008B510000877640008B510000853
S31508000040B5100008B5100008B5100008B51000086E
S31508000050B5100008B5100008B5100008B51000085E
S31508000060B5100008B5100008B510000811100008F2
S315080000700110000835020008DD020008B510000866
S31508000080B5100008B5100008B5100008B51000082E
S31508000090B5100008B5100008B5100008B51000081E
S315080000A0B5100008B5100008B5100008B51000080E
S315080000B0B5100008B5100008BDD401089DDE01087A
S315080000C055DE010851DE010885D6010899DE0108CA
S315080000D059DE010871DE01085DDE0108FDDE010852
S315080000E0DDDE0108B5100008B5100008B5100008D7
S315080000F0B5100008356E0008B5100008B5100008E0
S31508000100B5100008B5100008B5100008B5100008AD
S31508000110B5100008B5100008B5100008B51000089D
S31508000120B5100008B5100008B5100008B51000088D
S31508000130B5100008B5100008B5100008B51000087D
S31508000140B5100008B5100008B510000891B80008E9
S31508000150B5100008B5100008BB92000895C0010844
S31508000160B5100008B5100008C5A30108CBA30108FF
S3150800017010B5054C237833B9044B13B1044800E095
S3150800018000BF0123237010BDE41400200000000006
S31508000190D851020808B5034B1BB10349034800E0D0
S315080001A000BF08BD00000000E8140020D85102086E
S315080001B0A3F5803A704700BF174B002B08BF134BB7
S315080001C09D46FFF7F5FF00218B460F461348144A54
S315080001D0121A1EF032FE0E4B002B00D098470D4B1C
S315080001E0002B00D098470020002104000D000D4880
S315080001F0002802D00C4800E000BF1EF0B3FD200026
S31508000200290000F0B7FD1EF099FD00BF00000800A8
S31508000210000000000000000000100020E414002088
S31508000220C8650020000000000000000008B50AF0BC
S31508000230F3F908BD82B0234BDB6BDBB28DF80730D0
S31508000240214B1B7883B9214B00221A609DF8073091
S31508000250DBB2AF2B04D01E4B0422DA6402B070471F
S31508000260194B01221A70F6E79DF80730DBB2AC2B62
S315080002700ED0164B1B681D2B0AD8144B19689DF80F
S315080002800720D2B2134842541A6801321A60E2E7CC
S315080002909DF80730DBB2AC2B09D00C4B1B681D2B25
S315080002A0D9D90023094A1360074A1370D3E7074BC5
S315080002B01B681D2BF1D8084B01221A70024B00222D
S315080002C01A70C8E700000A40081500202C150020FF
S315080002D000200A400C150020001500201A4B0222A7
S315080002E0DA641A4B1B78002B2CD0184B00221A7094
S315080002F0174BAF225A64164B9B6C13F0400FFAD07B
S3150800030000220AE0134B9B5CDBB211494B64104B8D
S315080003109B6C13F0400FFAD001320F4B1B689342C7
S31508000320F0D80B4BAC225A64094B9B6C13F0400F68
S31508000330FAD0074B03F580520421116503F50053E3
S3150800034002221A65704700BF00200A4009150020DE
S3150800035000000A40301500203016002030B40D4C3D
S3150800036004F5005304251D650B4B1D700D0A5D70C1
S31508000370C9B29970DA70187105225A71074B0622AC
S315080003801A60074B01221A7004F58054022323656C
S3150800039030BC704700000A40301500203016002097
S315080003A00915002070B4104D05F50054042626657D
S315080003B00E4C4FF0000C84F800C04FEA102C84F85D
S315080003C001C0C0B2A070E170227163710623A371E7
S315080003D0074B07221A60074B01221A7005F580534E
S315080003E002221A6570BC704700000A4030150020CA
S315080003F0301600200915002070B4174D05F5005475
S3150800040004262665154C4FF0060C84F800C04FEA02
S31508000410102C84F801C0C0B2A070080EE070C1F3B9
S3150800042007402071C1F307206071C9B2A171E2715A
S31508000430DBB223729DF80C3063720A23A372084B51
S315080004400B221A60074B01221A7005F58053022207
S315080004501A6570BC704700BF00000A4030150020BE
S31508000460301600200915002038B505460C4603202D
S3150800047000F0E2FD28B9631FDBB2012B0DD900207D
S3150800048038BD00F0F9FD00F0F8FD23462A46064976
S315080004900648006806F050FDEDE72246002128468A
S315080004A000F0A0FAECE700BF94FE0108D819002076
S315080004B0F8B54F4B04221A6500234E4A13604E4A7C
S315080004C013704E4B1C78E4B2022C7FD0052C40F0FA
S315080004D08A804B4B01221A704A4A92F800C083F868
S315080004E001C00022022463E0601CC0B2464D02EB44
S315080004F0820305EB830115F82360414B1E55A61CA4
S31508000500F6B24F781F54486804F1030E5FFA8EFE60
S31508000510070E9F55261DF6B2C0F3074703F80E705F
S3150800052004F1050E5FFA8EFEC0F307279F55A61D38
S31508000530F6B2C0B203F80E0004F1070E5FFA8EFE9B
S31508000540087A9855488904F10806F6B2070A03F8A6
S315080005500E7004F1090E5FFA8EFEC0B298558889AE
S3150800056004F10A06F6B2070A03F80E7004F10B0E38
S315080005705FFA8EFEC0B2985504F10C00C0B28E7BAD
S3150800058003F80E6004F10D0E5FFA8EFECE7B1E5444
S3150800059004F10E00C0B2497C03F80E100F34E4B221
S315080005A002EB820105EB8105297C19540132D2B28E
S315080005B0944599D8124B1C550134144B1C60144BA6
S315080005C001221A70134B02221A65F8BD0C4D03233B
S315080005D02B700A4B58789A78D97842EA0020FFF7A8
S315080005E043FF6870E6E7064B07221A700124E1E725
S315080005F000200A402C150020001500200C150020AC
S315080006003015002034160020381600203016002039
S315080006100915002000100A4010B58AB00DF1040C27
S315080006200C4C0FCCACE80F000FCCACE80F002368DD
S31508000630CCF8003001AA0021074803F00FFA074B4F
S31508000640186008B10AB010BDCB21054807F06CFA4E
S31508000650F8E700BFCCFE01081107000804150020C2
S31508000660BCFE010810B588B001213A2001F01EFA37
S315080006700121572001F01AFA01230422114602200B
S3150800068002F01EFD002301220621022002F018FDB9
S31508000690EC461A4C0FCCACE80F0094E80F008CE837
S315080006A00F004FF4612302934FF44073ADF80E30F8
S315080006B0134B144AC3F8FC2402F50032C3F8F42499
S315080006C01422C3F8E424104C6946204602F0ECFCD8
S315080006D004F5805304221A6504F5005402232365A1
S315080006E00A4B4FF40052C3F880211A604FF4804237
S315080006F0C3F880211A6008B010BD00BFF0FE0108DB
S3150800070000C003400200040000000A4000E100E0C7
S3150800071038B5FFF7A7FF114B00221A601BE00A2025
S3150800072002F00EFF0134E4B2192C11D80B4A1368F3
S31508000730013313600A4B1B78002BF0D0094D28466D
S3150800074000F0C3FDFFF7B4FE284600F0C3FDE6E758
S31508000750054800F0C4FD0024E8E700BF2C1500207A
S3150800076000150020500602083806020838B5044667
S31508000770054D284600F0A9FD204600F067F92846F1
S3150800078000F0A8FD38BD00BF5006020810B50446A3
S31508000790032000F051FC08B954B910BD00F06CFCF8
S315080007A000F06BFC0A490B4B186806F0C5FBF3E72B
S315080007B0032000F041FC0028EFD000F05DFC00F0BB
S315080007C05CFC22460449034B186806F0B5FBE4E7CF
S315080007D010FF0108D81900201CFF010810B582B0C7
S315080007E0902832D00446912842D06A4800F077FD16
S315080007F00622002168461EF020FBC823ADF8023009
S315080008000B23ADF8043040F2FF13ADF80030624810
S3150800081009F036FE002C00F08B80684609F0C4FE0D
S3150800082004464FF4FA7008F00BFB032000F004FCB2
S315080008300028EFD000F020FC00F01FFC22465749A4
S31508000840574B186806F078FBE4E7032000F0F4FB42
S3150800085020B9504800F039FD02B010BD00F00CFC7C
S3150800086000F00BFC4F494E4B186806F065FBF0E7A5
S31508000870484800F034FD0622002168461EF0DDFADD
S31508000880C823ADF802300B23ADF8043040F2FF134D
S31508000890ADF80030404809F0F3FDBCB1684609F0F0
S315080008A083FE04464FF4FA7008F0CAFA032000F0F3
S315080008B0C3FB0028F1D000F0DFFB00F0DEFB224688
S315080008C03649374B186806F037FBE6E7314800F03B
S315080008D006FD09F04FFE0124BCB1FF2009F082FE97
S315080008E004464FF4FA7008F0ABFA032000F0A4FBB4
S315080008F00028F1D000F0C0FB00F0BFFB22462A49D1
S31508000900274B186806F018FBE6E7032000F094FB6F
S3150800091018B9204800F0E3FC9EE700F0ADFB00F0B4
S31508000920ACFB224621491E4B186806F005FBF0E78A
S31508000930184800F0D4FC09F01DFE0124BCB1FF20C4
S3150800094009F050FE04464FF4FA7008F079FA0320CD
S3150800095000F072FB0028F1D000F08EFB00F08DFB52
S31508000960224611490E4B186806F0E6FAE6E7032018
S3150800097000F062FB18B9074800F0B1FC6CE700F01C
S315080009807BFB00F07AFB22460849054B186806F0FF
S31508000990D3FAF0E7380602089C10002034FF010855
S315080009A0D819002028FF010850FF01086CFF01082C
S315080009B038B505460C46032000F03EFB00B938BDA5
S315080009C000F05AFB00F059FB2B4622460249034821
S315080009D0006806F0B1FAF2E784FF0108D81900208A
S315080009E07047000000B585B09B238DF80C308DF854
S315080009F00D108DF80E20084B1B78019303AB00935E
S31508000A0003230022012109F075FDB0FA80F04009A0
S31508000A1005B05DF804FB00BFAC10002000B585B03A
S31508000A20FF238DF80C30084B1B78019303AB00931A
S31508000A3001230022194609F05DFDB0FA80F040094D
S31508000A4005B05DF804FB00BFAC1000200379012B4C
S31508000A5040F087812DE9F04F89B004469E4B1B78FC
S31508000A6013F0010F03D0037813F0010F4FD0A068DD
S31508000A7005789A2D6ED017D8002D00F0BA80012D72
S31508000A8045D100231D461D2B3FD81E4603EB830286
S31508000A90924901EB820291896288914215D001350B
S31508000AA0EDB20133DBB2EEE79C2D30D100231D2BCE
S31508000AB03BD803EB8302894901EB8202918962885C
S31508000AC091422BD00133DBB2F1E7437881780904F0
S31508000AD041EA0361C37841EA0321037919437F4F49
S31508000AE006EB860007EB80004160A3685A794270DE
S31508000AF094F905304374207C06EB860607EB8606D8
S31508000B00307400906088FFF777FC1E2D02D009B07C
S31508000B10BDE8F08F6088FFF781FFF8E7827803EB7E
S31508000B2083056E4B03EB85056A70A3689A7861881E
S31508000B305878FFF713FC032000F07EFA0028E6D069
S31508000B4000F09AFA00F099FA6549664B186806F0BB
S31508000B50F3F9DCE7437823BB032000F06DFAB0B95C
S31508000B60A16800231A46C9786088FFF71BFC002392
S31508000B701D2BCCD8184603EB8302584901EB820299
S31508000B8091896288914222D00133DBB2F0E700F006
S31508000B9073FA00F072FA5449524B186806F0CCF909
S31508000BA0DEE7032000F048FA38B9A1688B780122FD
S31508000BB0C9786088FFF7F6FBD9E700F05DFA00F020
S31508000BC05CFA4A49474B186806F0B6F9EDE7A36898
S31508000BD0D978424B00EB800203EB8202517094F9FC
S31508000BE005105174227C00EB800003EB8000027430
S31508000BF08DE790F8019090F80280C27803791B047B
S31508000C0043EA0263427943EA02238279134307934C
S31508000C1090F807A0037A477A47EA0327837AC67AC1
S31508000C2046EA032690F80CB02B461D2B2CD81846FE
S31508000C3003EB8302294901EB82029189628891427A
S31508000C4004D00135EDB20133DBB2EEE7234A03EBFC
S31508000C50830102EB810302F8219083F8018007994A
S31508000C60596083F808A05F819E8183F80EB094F9D5
S31508000C7005105974237C00EB800002EB8000037496
S31508000C80032000F0D9F9D8B91E2D35D0032000F07D
S31508000C90D3F900283FF43BAF00F0EEF900F0EDF988
S31508000CA0CDF810B003960297CDF804A0079B0093E1
S31508000CB04B4642460E490B48006806F03DF926E7C2
S31508000CC000F0DAF900F0D9F932460A49054B1868F6
S31508000CD006F032F9D8E700BFAC100020381600201D
S31508000CE0BCFF0108D8190020C4FF0108D8FF010875
S31508000CF018000208ECFF01081A4803781A4903EBA2
S31508000D00830501EB850201F8259082F80180079D8D
S31508000D10556082F808A05781968182F80EB094F93A
S31508000D2005505574227C03EB830501EB85010A7493
S31508000D3001330370032000F07FF938B9A168FF2357
S31508000D40022289786088FFF72DFB9FE700F094F967
S31508000D5000F093F932460549054B186806F0ECF899
S31508000D60ECE7704734160020381600200000020809
S31508000D70D819002008B508F0C3FAFFF74DFC08F0AB
S31508000D80CBFA002008BD000008B5024B1B6803B16A
S31508000D90984708BDC018002008B5024B5B6803B128
S31508000DA0984708BDC018002008B5024B9B6803B1D8
S31508000DB0984708BDC018002008B5024BDB6803B188
S31508000DC0984708BDC018002008B5024B1B6903B137
S31508000DD0984708BDC018002008B5024B5B6903B1E7
S31508000DE0984708BDC01800207047704708B50AF034
S31508000DF0A7FC08BD7047704708B50AF0F9FB08BD9F
S31508000E00704770477047704770477047704708B516
S31508000E100AF062FB08BD7047704770477047704715
S31508000E2070477047704708B500214FF0FF3009F04A
S31508000E3043FB08BD0020704700207047704708B57F
S31508000E400321802001F074FA03214FF4806001F039
S31508000E506FFA0A214FF4C06001F06AFA0A214FF4CA
S31508000E60F06001F065FA0A213E2001F061FA0A21D4
S31508000E702D2001F05DFA0A21512001F059FA0020CF
S31508000E8008BD000010B5284B5A6E02F4803203F5EF
S31508000E9080514FF480304866586E4FF000434B66D9
S31508000EA0224B596C01F001014AF6CD341C641F4BE4
S31508000EB05B6B13F0010FFAD11D4B01245C601B4BD1
S31508000EC01B6B13F0010FFAD01A4BD3F8083613F040
S31508000ED0020F03D1164B4FF48024DC6511B1134B76
S31508000EE015491964002803DB144B4FF00041596675
S31508000EF01AB9124B4FF480325A6605F071FD05F0A7
S31508000F0005FD05F089FD05F02BFDFFF798FF05F0B7
S31508000F1015FD06F043FD00F04DFA02F07DFA02F0E9
S31508000F207DFA07F0ADF910BD008000400040094089
S31508000F300060094000C007403254FFFF00A000408F
S31508000F4008B502F0A3FA08BD08B500F069F808BDAF
S31508000F5008B505F0CBFC0AF045FB08BD08B500F05E
S31508000F608DF808BD08B500F047F808BD08B507F0C4
S31508000F70CDFD05F055FD06F0F9F90AF077FD06F006
S31508000F809DFFFFF7EFFF08BD10B59AB0164C0DF19F
S31508000F90480CA646BEE80F00ACE80F009EE80F0016
S31508000FA08CE80F002C22002107A81DF046FF0F4BE6
S31508000FB0079301238DF821305623ADF822300623F6
S31508000FC00B9307230D930DF10C0C04F120030FCBA3
S31508000FD08CE80F00064B009307AB12AA614605483A
S31508000FE006F052F81AB010BD080602080000014BB8
S31508000FF0D8180020B019002008B5FFF7C5FF08BDAE
S3150800100008B5024B186806F059F908BDB019002052
S3150800101008B5024B186806F051F908BDB01900204A
S3150800102008B5034800F04CF9024800F049F908BD34
S31508001030380602085006020803460B4A107828B1FB
S315080010400A4A12789A4202D2002000E00120084A91
S3150800105012783AB1074A127842FA03F313F0010FED
S3150800106000D10020704700BFC7100020C81000201C
S31508001070DC190020C91000207047704708B5084BD6
S3150800108001221A70074B00221A70074B04221A70A5
S31508001090064B1F221A7005F0D1FE054B186008BDD5
S315080010A0C7100020DC190020C8100020C910002035
S315080010B0D8190020FEE7000008B500F013F8064B23
S315080010C0064A03E052F8041B43F8041B04498B4202
S315080010D0F8D3FFF771F800BF9C100020E051020812
S315080010E0E4140020044B054A9A60D3F8882042F499
S315080010F07002C3F88820704700ED00E00000000881
S31508001100014B1868704700BFD010002008B5094B7E
S315080011101B6F03F00703022B04D0032B05D0012B0A
S3150800112006D0FEE7FFF7ECFF03E0034B186800E084
S31508001130024808BD00800040D4100020002D31016F
S3150800114008B5FFF7E3FF054B1B6FC3F30333013302
S31508001150B0FBF3F0024B186008BD00BF00800040EA
S31508001160CC1000200048704700B4C404014B18682E
S31508001170704700BFD410002008B5064B1860064B10
S315080011801B6F03F00703032B00D008BDFFF7D8FF3A
S31508001190FBE700BFD4100020008000400020704705
S315080011A000487047002D31014FF094439868C0F30A
S315080011B004400C2808D8DFE800F0090707070707E6
S315080011C022181A071C1E2000002070474FF094436F
S315080011D09B6803F04073B3F1807F12D0B3F1007FB0
S315080011E011D003B170470948704709487047094844
S315080011F070470948704709487047094870470948C1
S315080012007047094870470948ECE700BF00093D00E8
S315080012100024F400C0EA210180BA8C010048E801E4
S31508001220005A6202405DC60080841E0040420F00DC
S315080012304FF4004070474FF47A707047014B1868B6
S31508001240704700BFD810002000230360704703686A
S315080012500B600160704700E01846036823B18B42B3
S31508001260FAD10B680360704770479AB110B584B01D
S31508001270144648B16A4604F053FC20609DF80030D5
S3150800128053B1012004B010BD6A46002004F048FCA2
S315080012902060F3E7012070470020F3E70346064A7B
S315080012A010680344054A934202D8034A13607047FC
S315080012B04FF0FF30704700BFDC100020000001200F
S315080012C008B543680068984708BD08B5836800688C
S315080012D0984708BD08B5C3680068984708BD08B5AB
S315080012E003690068984708BD10B5044601213A20ED
S315080012F000F0DCFBA378B3FA83F35B090422617878
S31508001300207801F0DDFE002010BD000083784BB97F
S31508001310037842780121914003EB43031B01064AF7
S31508001320D1507047037842780121914003EB43037B
S315080013301B01024AD150704740E0034040D00340A9
S3150800134083784BB9037842780121914003EB430334
S315080013501B01064AD1507047037842780121914013
S3150800136003EB43031B01024AD150704740D00340A8
S3150800137040E00340037842780121914003EB4303A0
S315080013801B01014AD150704740F0034002460378DA
S31508001390407803EB43031B01103305495B58C340F0
S315080013A003F0010093780BB980F00100704700BF85
S315080013B030C0034008B5034B1968034B186814F08E
S315080013C0FDFB08BDE4100020E0100020B0F1FF3F4F
S315080013D001D010B97047024870470248704700BFED
S315080013E021E000F024E000F08908002301E0043041
S315080013F001338B4205D20268B2F1FF3FF7D00020D5
S31508001400704701207047704738B504461EF028FD1E
S31508001410FFF7DCFF054650B9074B9B680A3303F014
S315080014201F03012199402046FFF7DEFF08B1284631
S3150800143038BD024DFBE700BF0080E00F0EE000F06C
S31508001440F8B505460E46940022461EF001FDFFF744
S31508001450BDFF074608B13846F8BD2246314628463C
S315080014601DF0B4FC0028F6D0004FF4E710E000F0B9
S3150800147008B50346084613F0030F02D111F0030F0F
S315080014800AD0920019461DF0B1FC002008BD53F899
S31508001490041B40F8041B013A002AF8D1F5E70000BE
S315080014A010B582B0044601A801F0E6FE9DF80630A4
S315080014B023800122E2700020A070054B9B680A3346
S315080014C003F01F0302FA03F3636002B010BD00BF06
S315080014D00080E00F08B501F06FFE08BD08B501F001
S315080014E05BFE002008BD000008B501F0E3F9014BDA
S315080014F0186008BD7020002008B5024B186801F076
S31508001500DDF908BD7020002008B50A4641180139E2
S3150800151006F038FD08BD0000024B4FF480321A670A
S31508001520704700BF0090004038B505460C46FFF7E7
S31508001530EDFD05B128600CB10D23237038BD000000
S3150800154038B505460C46164BD3F8203103F0070389
S31508001550013B052B20D8DFE803F0030B130F171BFD
S31508001560FFF7CEFD052305B1286004B1237038BD09
S31508001570FFF7FCFD0323F6E7FFF716FE0723F2E75E
S31508001580FFF70EFE0223EEE7FFF7BAFD0623EAE7AA
S31508001590FFF7ECFD0423E6E700231846E3E700BF60
S315080015A00080004038B505460C46114BD3F8283163
S315080015B003F00703013B032B17D8DFE803F0020EFD
S315080015C0120AFFF79DFD052305B1286004B12370B3
S315080015D038BDFFF7E9FD0723F6E7FFF7C7FD032345
S315080015E0F2E7FFF7DDFD0223EEE700231846EBE7F7
S315080015F00080004030B583B005460C4600230193B1
S31508001600114BD3F8803103F00303022B16D0032BBA
S315080016100FD0012B07D000230DB1019A2A6004B11F
S31508001620237003B030BD002101A8FFF789FF0F23FF
S31508001630F2E7FFF7B9FD01900723EDE7FFF7B0FDE5
S3150800164001900223E8E700BF0080004038B5054650
S315080016500C460C4BD3F8903203F00303012B05D04C
S31508001660022B07D1FFF7A0FD072305E0FFF798FD3A
S31508001670022301E00023184605B1286004B123704F
S3150800168038BD00BF0080004030B583B005460C4623
S3150800169000230193144BD3F8203203F00703013BD0
S315080016A0032B1ED8DFE803F0020E1318002101A849
S315080016B0FFF778FF11230DB1019A2A6004B1237050
S315080016C003B030BDFFF770FD01900723F3E7FFF77E
S315080016D0AFFD01900A23EEE7FFF7B0FD019009235D
S315080016E0E9E70023E7E700BF0080004038B5054674
S315080016F00C460F4BD3F8403103F00303022B0ED0F0
S31508001700032B10D0012B06D00023184605B12860FC
S3150800171004B1237038BDFFF78BFD0A23F6E7FFF700
S315080017208DFD0923F2E7FFF786FD0B23EEE700BFE1
S315080017300080004030B583B005460C46002301936F
S315080017404FF0E0231B6913F0040F0ED0FFF7F8FCE7
S3150800175001900C238DF803300DB1019B2B6014B159
S315080017609DF80330237003B030BD0DF1030101A8C5
S31508001770FFF7BCFFF0E7000030B583B005460C461E
S3150800178000230193144BD3F8603203F00703013B9F
S31508001790032B1FD8DFE803F0020E1914002101A855
S315080017A0FFF7CEFE0F230DB1019A2A6004B123700C
S315080017B003B030BD002101A8FFF798FF1023F2E718
S315080017C0FFF7F2FC01900723EDE7FFF7E9FC01902C
S315080017D00223E8E70023E6E70080004030B583B03F
S315080017E005460C46002301930C4BD3F8703203F0E0
S315080017F00303012B09D0022B0DD114230DB1019A35
S315080018002A6004B1237003B030BD002101A8FFF798
S315080018106DFF1023F2E70023F0E700BF00800040C9
S3150800182038B505460C46124BD3F8003203F00703C9
S31508001830013B032B18D8DFE803F0020A0E12FFF764
S31508001840F7FC0A2305B1286004B1237038BDFFF7F9
S31508001850F5FC0923F6E7FFF7EEFC0B23F2E7FFF7A3
S315080018606FFC800A0E23EDE700231846EAE700BF5F
S315080018700080004038B505460C46124BD3F80832AE
S3150800188003F00703013B032B18D8DFE803F0020A2D
S315080018900E12FFF7CDFC0A2305B1286004B12370A8
S315080018A038BDFFF7CBFC0923F6E7FFF7C4FC0B238B
S315080018B0F2E7FFF745FC800A0E23EDE700231846FA
S315080018C0EAE700BF0080004038B505460C460F4BD6
S315080018D0D3F8403203F00303022B0ED0032B10D0AB
S315080018E0012B06D00023184605B1286004B12370E1
S315080018F038BDFFF79DFC0A23F6E7FFF79FFC09238F
S31508001900F2E7FFF798FC0B23EEE700BF00800040E4
S3150800191038B505460C460F4BD3F8503203F003038F
S31508001920022B12D0032B08D0012B0AD0002318460D
S3150800193005B1286004B1237038BDFFF77CFC0B2382
S31508001940F6E7FFF775FC0A23F2E7FFF777FC0923AA
S31508001950EEE700BF0080004038B505460C460F4B41
S31508001960D3F8603103F00303022B0ED0032B10D0FB
S31508001970012B06D00023184605B1286004B1237050
S3150800198038BDFFF755FC0A23F6E7FFF757FC09238E
S31508001990F2E7FFF750FC0B23EEE700BF008000409C
S315080019A038B505460C46104BD3F8000100F0030085
S315080019B0032815D8DFE800F002080C10012305B14A
S315080019C0286004B1237038BDFFF7D0FB0323F6E780
S315080019D0FFF734FC0923F2E7FFF7E0FB0823EEE7FD
S315080019E000231846EBE700BF00800040B0F5207FD3
S315080019F020D00ED8B0F5007F16D020D810B1B0F59B
S31508001A00C07F04D10F4B186FC0F3033018E00020D5
S31508001A1016E0B0F5607F05D10A4BD3F88000C0F315
S31508001A2001100DE000200BE0064BD3F89000C0F340
S31508001A30046005E0034B186FC0F3802000E0002027
S31508001A40013070470080004038B505460C46104BFB
S31508001A504FF480329A660020FFF7C8FF05FB00F0B6
S31508001A600C4BDA6902F4803241F67131D9635B684E
S31508001A7023F440130849884201D9002C05DD05499D
S31508001A804B600AB10022CA6338BD43F48013F6E7F7
S31508001A900090004000000340005A620208B5FFF7B4
S31508001AA061FB0021FFF7D0FF08BD0000430905D000
S31508001AB0012B0ED0022B0ED0002200E0002200F0EF
S31508001AC01F0051B102F58052012303FA00F010609D
S31508001AD07047034AF3E7034AF1E702F50052F3E7D2
S31508001AE0648000406880004010B582B000230193EE
S31508001AF00093B0F5807F00F20781B0F5807F00F291
S31508001B007581DFE810F04C017301730173017301ED
S31508001B107301730173017301730173017301730117
S31508001B207301730173017301730173017301730107
S31508001B3073017301730173017301730173017301F7
S31508001B407301730173014C0185014C0185019D01E7
S31508001B509D019D019D019D018501A2013D01AC01EB
S31508001B6023013D0185018501850173017301730117
S31508001B707301730173017301AC0185018501850148
S31508001B80C001B1018501730173017301730173010A
S31508001B907301730173017301730173017301B60154
S31508001BA09D014C014C014C016D013D013D01620155
S31508001BB0BB0156017C017C0173017301730173013A
S31508001BC07301730173017301730173017301730167
S31508001BD07301730173017301730173017301730157
S31508001BE07301730173017301730173017301730147
S31508001BF07301730173017301730173017301730137
S31508001C007301730173018101730173017301730118
S31508001C107301730173017301730173017301730116
S31508001C207301730173017301730173017301730106
S31508001C3073017301730173017301730173017301F6
S31508001C4073017301730173017301730173017301E6
S31508001C5073017301730173017301730173017301D6
S31508001C6073017301730173017301730173017301C6
S31508001C7073017301730173017301730173017301B6
S31508001C8073017301730173017301730173017301A6
S31508001C907301730173017301730173017301730196
S31508001CA07301730173017301730173017301730186
S31508001CB07301730173017301730173017301730176
S31508001CC07301730173017301730173017301730166
S31508001CD07301730173017301730173017301730156
S31508001CE07301730173017301730173017301730146
S31508001CF07301730173017301730173017301730136
S31508001D00730173017301A701B0F5E06F00F0AC80B1
S31508001D100CD9B0F5286F00F0B1804FD9B0F5306F07
S31508001D2063D1002101A8FFF791FC5FE0B0F5607F61
S31508001D3079D010D9B0F5B06F00F0878033D9B0F5F7
S31508001D40C06F00F08C80B0F5D06F4FD1002101A88C
S31508001D50FFF766FD4AE0B0F5007F0AD1FFF7D6F92E
S31508001D6004464FF40070FFF741FEB4FBF0F401940B
S31508001D703CE011D9B0F5207F4AD0B0F5407F35D187
S31508001D80FFF7DEF904464FF42070FFF72FFEB4FB89
S31508001D90F0F46408019429E0B0F5C07F26D1FFF776
S31508001DA0CFF9019022E0B0F5806F49D0B0F5A06F69
S31508001DB01CD1002101A8FFF767FC17E0B0F5186FE2
S31508001DC057D007D9B0F5206F10D1002101A8FFF729
S31508001DD0D3FC0BE0B0F5F06F55D0B0F5106F05D118
S31508001DE0002101A8FFF746FD00E002D2019802B0E3
S31508001DF010BDB0F5386F32D0B0F5406FF6D100217E
S31508001E0001A8FFF7CFFBF1E7FFF780F90190EDE7AF
S31508001E10FFF796F904464FF42070FFF7E7FDB4FB89
S31508001E20F0F40194E2E700216846FFF77DFB009C89
S31508001E304FF46070FFF7DAFDB4FBF0F40194D5E7D0
S31508001E40002101A8FFF77CFBD0E7002101A8FFF7D6
S31508001E50D1FBCBE7002101A8FFF76CFCC6E7002100
S31508001E6001A8FFF743FCC1E7002101A8FFF72CFDF5
S31508001E70BCE7002101A8FFF74BFDB7E7002101A841
S31508001E80FFF7ACFCB2E7002101A8FFF765FDADE757
S31508001E9008B58020FFF728FE034B984203D8034B6A
S31508001EA04FF480321A6708BD005A620200A000404B
S31508001EB000B583B000238DF80730B0F5807F00F0B9
S31508001EC0BE8013D9B0F5086F00F0C58046D9B0F5C5
S31508001ED0286F00F0D88070D9B0F5306F40F0828056
S31508001EE00DF107010020FFF7B1FB7CE080287AD8C6
S31508001EF0242878D324385C2875D8DFE800F04F4FBB
S31508001F004F4F4F744674A65874747474747474740A
S31508001F10747474A67474743AB87474747474747437
S31508001F20747474747474BE4F7474746D747464C405
S31508001F30B27F7F74747474747474747474747474FF
S31508001F407474747474747474747474747474747443
S31508001F50747474747474747474748500B0F5C06F92
S31508001F6073D00CD9B0F5E06F00F08180B0F5F06F52
S31508001F701AD10DF107010020FFF7EEFC33E0B0F5AA
S31508001F80A06F6ED0B0F5B06F05D10DF10701002036
S31508001F90FFF730FB27E0B0F5806F24D10DF107017C
S31508001FA00020FFF7CDFA1EE0B0F5D06F1BD10DF17A
S31508001FB007010020FFF734FC15E0B0F5186F5CD078
S31508001FC0B0F5206F05D10DF107010020FFF7D4FB0E
S31508001FD009E0B0F5106F06D10DF107010020FFF7F3
S31508001FE049FC00E004D29DF8070003B05DF804FB45
S31508001FF0B0F5386F29D0B0F5406FF4D10DF107016F
S315080020000020FFF7CFFAEEE7224B1B6F03F007031A
S31508002010013B032BE7D8DFE803F00E02060A052387
S315080020208DF80730DFE703238DF80730DBE7082351
S315080020308DF80730D7E702238DF80730D3E70DF17F
S3150800204007010020FFF776FBCDE70DF10701002019
S31508002050FFF74CFBC7E70DF107010020FFF7A0FCCF
S31508002060C1E70DF107010020FFF70EFBBBE70DF1F5
S3150800207007010020FFF728FCB5E70DF1070100204E
S31508002080FFF746FCAFE70DF107010020FFF7A6FBB7
S31508002090A9E700BF0080004070B505468020FFF71D
S315080020A007FF032800F0A180584B4FF480125A66A8
S315080020B0574B45F60E02C3F8802003F580524FF0C1
S315080020C0A061916203F500534FF480329A62504B37
S315080020D09C6D14F48034FAD12A786B781B0543EA90
S315080020E00263EA7843EA02432A7943EA02336A79C1
S315080020F043EA8213AA791343454E3361B36903F061
S315080021000043EA7943EA82632A7A43EA02636A7AEF
S3150800211043EA0243AA7A43EA0223EA7A1343B361FB
S3150800212000F0C8FBB26B82F4006303F440635340CB
S31508002130B36300F0C3FB336A23F00F036A7B02B173
S31508002140082423432C7B43EA84031343304A13624F
S315080021506B7B002B30D1916A2E4B0B40A97B43EA4F
S315080021604113E97B43EA0113A97C43EAC10343F41B
S3150800217080339362264B9A6D274B9343FAD1244AB0
S3150800218002F580514FF080738B62136923F4700354
S31508002190A87843EA005313614FF000438B612B7C08
S315080021A01BB91E4B4FF080729A626B7CBBB91B4BF6
S315080021B04FF480329A6212E0022B17D0144A916AC1
S315080021C0144B0B40A97B43EA4113297C43EA01637C
S315080021D0A97C43EAC103697C43EA01439362EB7C29
S315080021E01BB10B4B0E4AC3F8802070BD084C002368
S315080021F02361A36100F05EFB626B82F4085303F46B
S315080022007F435340636300F059FBD7E700900040D3
S315080022100040004AC7FFFEFE030001000060004AB6
S31508002220F1A7FFFF014B93F9000070470411002046
S3150800223008B5002903DD0121FFF706FC08BD0021CA
S31508002240FFF702FCFAE70000B0F5207F4AD02FD846
S31508002250B0F5007F3BD04ED810B1B0F5C07F26D17F
S3150800226010B54C1EFFF71AFC00F048F8FFF754F9B2
S31508002270214B196F21F4704141EA04311967FEF7C1
S315080022805FFF4FF04023D3F8843013F0100FF8D1D6
S315080022904FF04023D3F88410C1F38111C1F1020134
S315080022A0FFF7C6FF00F032F8FFF7F2FD10BD7047E2
S315080022B0B0F5607F0AD101390F4AD2F8803023F091
S315080022C0300343EA0111C2F880107047704701399C
S315080022D0094AD2F8903023F0F85343EA0161C2F86C
S315080022E0901070470139044A136F23F4806343EA58
S315080022F081211167704770470080004008B50221A8
S315080023004FF42070FFF7A0FF08BD000008B54FF492
S31508002310C070FFF7E9FB054B984205D902214FF437
S315080023202070FFF791FF08BD0121F8E780F0FA0257
S3150800233070B50C46B0F5807F00F094811FD9B0F5D2
S31508002340086F00F0108240F28380B0F5286F00F025
S31508002350998240F2D180B0F5306F40F0F8800229BA
S3150800236000F0A282072940F0A1820221874AD2F80A
S31508002370903223F003030B43C2F89032E8E080283A
S3150800238000F2E6802428C0F0E38024385C2800F2B6
S31508002390DF80DFE810F0990099009900990099000C
S315080023A0DD008300DD00A801A500DD00DD00DD00FD
S315080023B0DD00DD00DD00DD00DD00DD00DD00DD0027
S315080023C0A801DD00DD00DD0069002D02DD00DD006D
S315080023D0DD00DD00DD00DD00DD00DD00DD00DD0007
S315080023E0DD00DD00DD0043029900DD00DD00DD00D3
S315080023F0D000DD00DD00B8007702FE01E500E5004B
S31508002400DD00DD00DD00DD00DD00DD00DD00DD00D6
S31508002410DD00DD00DD00DD00DD00DD00DD00DD00C6
S31508002420DD00DD00DD00DD00DD00DD00DD00DD00B6
S31508002430DD00DD00DD00DD00DD00DD00DD00DD00A6
S31508002440DD00DD00DD00DD00DD00DD00DD00F10082
S31508002450B0F5C06F00F0478119D9B0F5E06F00F00C
S31508002460C781B0F5F06F38D10A2C00F054810B2CD7
S3150800247000F05381092C00F04C810021434AD2F820
S31508002480603123F003030B43C2F8603160E0B0F516
S31508002490A06F00F07E81B0F5B06F12D1072C00F066
S315080024A0C7800F2C00F0C680022C00F0BF800021E8
S315080024B0364AD2F8803123F003030B43C2F8803141
S315080024C046E0B0F5806F43D1023C052C00F2B4809B
S315080024D0DFE804F0B8B4BCBEBAB6B0F5D06F37D1F1
S315080024E0093C052C00F21B81DFE814F023012901C1
S315080024F02501190119012701B0F5186F00F08E8121
S31508002500B0F5206F14D1023C0E2C00F29D81DFE855
S3150800251014F0B7019B019B019B019B01B1019B0133
S315080025209B019B019B019B019B019B01B301B5018B
S31508002530B0F5106F0CD1093C052C00F20281DFE8DA
S3150800254014F00A0110010C01000100010E0100D26D
S3150800255070BDB0F5386F00F0C680B0F5406FF7D1A2
S31508002560023C052C00F23281DFE814F03C013E0102
S315080025703001400130013A018B1E062B08D8DFE8EE
S3150800258003F04F3D075207074C0000BF008000408C
S3150800259000252E460121022000F002FAFFF77EFAF6
S315080025A0FFF7ACFEFEF7B8FFAC4A136F23F007033C
S315080025B033431367FEF7C4FD4FF04023D3F8843046
S315080025C013F0100FF8D14FF04023D3F88410C1F35D
S315080025D08111C1F10201FFF72BFE0121002000F055
S315080025E029FAFFF793FEFFF753FC002DB0D1032C11
S315080025F0AED19B4B4FF480329A62A9E7994B4FF4C0
S3150800260080125A66984B9D6AC5F3006503F5805398
S315080026104FF480329A620326BCE700250426B9E700
S3150800262000250126B6E700250226B3E702213FE783
S3150800263003213DE701213BE700210AE0022108E0EA
S31508002640042106E0032104E0052102E0062100E05A
S315080026500121824AD2F8203123F007030B43C2F83E
S31508002660203175E70C2924D01FD8A1F10904E4B25A
S31508002670022C3FF66DAF794B596E03F580534FF434
S3150800268080325A66794A536A43F00103536211F459
S31508002690803F03D1764B4FF480325A664FF0E022E2
S315080026A0136923F00403136152E710297FF450AF2E
S315080026B0E1E76A4B596E03F580534FF480325A6648
S315080026C06A4A536A23F00103536211F4803F03D127
S315080026D0674B4FF480325A664FF0E022136943F095
S315080026E00403136134E70A2C0FD00B2C0FD0092CE6
S315080026F009D00021594AD2F8403123F003030B438D
S31508002700C2F8403124E70221F4E70121F2E7032168
S31508002710F0E70221B2E60121B0E60321AEE6002188
S315080027204E4AD2F8003223F007030B43C2F80032B0
S315080027300EE70221F4E70321F2E70421F0E701217D
S31508002740EEE70021454AD2F8083223F007030B4387
S31508002750C2F80832FCE60221F4E70321F2E7042175
S31508002760F0E70121EEE708290FD009290FD0032940
S3150800277009D00021394AD2F8003123F003030B436C
S31508002780C2F80031E4E60121F4E70321F2E7022169
S31508002790F0E7073C0A2C07D8DFE804F01006141205
S315080027A0060606060606160000212C4AD2F820322E
S315080027B023F007030B43C2F82032C9E60221F4E7E7
S315080027C00321F2E70421F0E70121EEE70021234A7D
S315080027D0D2F8283123F007030B43C2F82831B7E6AD
S315080027E00421F4E70321F2E70221F0E70121EEE7ED
S315080027F00A2C0FD00B2C0FD0092C09D00021174A10
S31508002800D2F8403223F003030B43C2F840329FE666
S315080028100221F4E70121F2E70321F0E70A2C0FD0A1
S315080028200B2C0FD0092C09D000210C4AD2F85032B3
S3150800283023F003030B43C2F8503289E60221F4E77A
S315080028400121F2E70321F0E70021044AD2F86032B9
S3150800285023F007030B43C2F8603279E60080004094
S315080028600060004A009000400040004A00C007404F
S3150800287000A000400421E8E70121E6E70221E4E799
S315080028800321E2E7102C0BD0142C0BD10221084AA5
S31508002890D2F8703223F003030B43C2F8703257E6BE
S315080028A00121F4E70021F2E701215FE500215DE55A
S315080028B000800040EFF3108072B6704700B962B628
S315080028C07047302383F311887047002383F31188F8
S315080028D07047EFF31180302383F31188704780F334
S315080028E011887047034B5868C0F30800003818BFB2
S315080028F00120704700ED00E0EFF3108313F0010F9D
S3150800290005D1EFF311832F2B03D800207047012040
S315080029107047012070474FF04022536F23F44073ED
S31508002920417843EA012353677047704770470000B0
S3150800293010B50446094A136943F00403136105F008
S3150800294031FFFFF7F2FF30BFFFF7F0FF05F040FF5A
S3150800295004B110BDFEF7F4FBFBE700BF00ED00E095
S3150800296010B50446074A136943F00403136105F0DA
S3150800297019FF30BF05F02CFF04B110BDFEF7E0FBD0
S31508002980FBE700BF00ED00E0704770474FF04022BC
S31508002990D36E23F0300301790B43D3667047704733
S315080029A0F8B504464FF04023D3F8843013F0100FDF
S315080029B0F8D14FF04023D3F88430C3F381139C42F7
S315080029C031D0FEF7A3FB0646012C12D0FFF772FFA3
S315080029D005464FF0402707F500534FF000725A6638
S315080029E02046FFF7DCFF621E4FF4806393403B6787
S315080029F007E00121FFF71CFCE8E74FF04023D3F876
S31508002A0084304FF040235B6E13F0007F06D14FF001
S31508002A104023D3F8843013F0200FEED02846FFF772
S31508002A204DFF022C00D0F8BD00213046FFF700FC10
S31508002A30F9E7000010B50C46034650B1094A12786A
S31508002A4012B1094A934208D921460220FFF7A8FF86
S31508002A5010BDFEF75BFB0346F0E721460120FFF7B2
S31508002A609FFFF5E724210020005A620208B5027884
S31508002A70034B1A7001210020FFF7DCFF08BD00BFD9
S31508002A80242100201B4B4FF000425A6603F50B2306
S31508002A905A6C02F001024AF6CD31196490B9164B08
S31508002AA05B6B13F0010FFAD1134B5B6813F0010F40
S31508002AB01BD0124B012159600F4B1B6B13F0010FF2
S31508002AC0FAD012E00C4B1B6B13F0080FFAD10A4B25
S31508002AD003F500512020886203F5805301215960CF
S31508002AE0054B9B6A13F0200FFAD012B1024B044A29
S31508002AF01A64704700900040004009400060094091
S31508002B003254FFFF10B5194B4FF000425A6603F5D1
S31508002B100B235C6C04F001044AF6CD321A64437840
S31508002B205B0043F001034FF04022D363104B5B6B0D
S31508002B3013F00B0FFAD10E4A536823F4F873817811
S31508002B4043EA01135360C178437943EA012393604A
S31508002B500179837943EA012313610078FFF792FF2D
S31508002B6014B1034B034A1A64012010BD00900040BB
S31508002B70004009403254FFFF10B40F2800D90F2037
S31508002B80124B5C6E03F580534FF000425A6603F50C
S31508002B900B235A6C02F001024AF6CD3119640C4B2C
S31508002BA05B6B13F0800FFAD109490B6A23F00F0308
S31508002BB0184308620AB1074A0A64002C03DB064B6D
S31508002BC04FF000425A665DF8044B7047008000409B
S31508002BD0004009403254FFFF00A0004010B4134BD8
S31508002BE05C6E03F580534FF000425A6603F50B23DB
S31508002BF05A6C02F001024AF6CD3119640C4B5B6B34
S31508002C0013F0800FFAD10A490B6A23F4F85343EA02
S31508002C10002008620AB1074A0A64002C03DB064B47
S31508002C204FF000425A665DF8044B7047008000403A
S31508002C30004009403254FFFF00A00040084B98426C
S31508002C400AD0084B984209D003F58043984201D030
S31508002C500020704758207047562070475720704705
S31508002C600000014B00000A40436813F0010F19D019
S31508002C70836813F0010F03D0036913F0010F09D01D
S31508002C800A238363436D13F0500FFBD1836C13F053
S31508002C90030FFBD100F5005301225A60436813F075
S31508002CA0020FFBD1042307E000F5805304221A61C2
S31508002CB000F500531A610B46591E002BF4D1202348
S31508002CC003610023C360836041F2020242618361AB
S31508002CD04FF4A0224262C36103628362C362436304
S31508002CE0036500F500520249D1640363704700BFCB
S31508002CF0FF3F0D030A46F1B100F5805301215960E3
S31508002D0002F00F01436DC3F30B03002BFAD1816365
S31508002D10436D13F07803FBD112F0010F00D00123A5
S31508002D2012F0040F01D043F00203826C02F0030292
S31508002D309A42FAD17047436813F0010FFAD08368B4
S31508002D4013F0010F03D0036913F0010F09D00A230A
S31508002D508363436D13F0500FFBD1836C13F0030F9D
S31508002D60FBD100F5005301225A60436813F0020FA5
S31508002D70FBD17047836C13F0800FFBD0C06BC0B2D9
S31508002D807047836C13F0400FFBD041647047000016
S31508002D9038B5044615460846E1B1A36813F0010F95
S31508002DA04ED06268B0FBF5F0013812F001023BD054
S31508002DB0636D13F0280FFBD1A36C13F0030F0FD12B
S31508002DC0A36C13F0010F2BD1A36C13F0020F29D1BA
S31508002DD0002106E02046FFF731FFFEF785FEDCE717
S31508002DE00521636813F0010F1FD0A36813F0010FC4
S31508002DF003D0236913F0010F09D00A23A363636D77
S31508002E0013F0500FFBD1A36C13F0030FFBD104F59D
S31508002E10005301255D60636813F0020FFBD104E0DF
S31508002E200921DEE70621DCE70021236923F07F4339
S31508002E3043EA006020610AB32046FFF75BFF1DE006
S31508002E406368A36803F0E003402B1DD017D9602BF5
S31508002E501ED0802B12D10123400105FB03F3B0FBE2
S31508002E60F3F020380B4B03EAC000636D13F0010F33
S31508002E70FBD12063636D13F0010FFBD138BD2BB175
S31508002E80202BFBD10823E7E70623E5E71023E3E732
S31508002E900423E1E7F8FF7F0070B504460D461646A1
S31508002EA0436823B1636DC3F30B03002BFAD12046A5
S31508002EB0FFF7DAFE636923F44C5323F00F036A7BAA
S31508002EC01343EA8913432A8A13436361A36823F0E9
S31508002ED0804323F0E2032A7B13432A7E13436A695D
S31508002EE01343A360AB681BB9A36843F00043A36010
S31508002EF0EA69002A74D0A368127A43EA8253A36067
S31508002F00A368EA69927A43EA4243A360A368EA6936
S31508002F10928802F4C0421343A360A368EA69527810
S31508002F2043EA8203A360A368EA69527B43EAC203C1
S31508002F30A360A368EA69927B43EA0213A360A368C5
S31508002F40EA69927843EA8223A360EA699179D37998
S31508002F505B0243EA8123E360EB691B78012B01D00E
S31508002F60032B03D1E36843F00403E360EB691B78A2
S31508002F70023BDBB2012B4DD9474B9C4267D0474BEE
S31508002F809C4266D003F580439C425ED04FF0FF33E7
S31508002F9003F593735B0103F1804303F57033022253
S31508002FA05A60EB695A7A04F580539A62EB695B7A40
S31508002FB01BB1E36843F40063E360EB69DB7A7BB13A
S31508002FC0E36843F40043E360334B9C4243D0EB6928
S31508002FD01B7B03F00F03324A1367324B9C4241D0E6
S31508002FE03EB196F82030002B42D004F580530122DA
S31508002FF01A6205212046FFF77DFEAA68002A46D1F7
S3150800300029782046FFF776FEA36CDB4313F4405F6E
S31508003010FAD170BD204B9C4213D0204B9C4212D053
S3150800302003F580439C420AD04FF0FF33A6335B0179
S3150800303003F1804303F5703302225A60B1E7022395
S31508003040F4E70023F2E70123F0E70223A0E70023D1
S315080030509EE701239CE7EB691B7B03F00F03104AED
S315080030605366B4E7EB691B7B03F00F03D367B7E737
S31508003070E36923F0090396F82220134396F82120E2
S31508003080134343F0010304F58052D361B1E769683D
S315080030902046FFF77DFEB3E70000014B00000A401B
S315080030A00090034000400A4008B500231A46FFF77F
S315080030B0F3FE08BD08B500231A46FFF7EDFE08BD66
S315080030C02DE9F84F04460E461F4690463AB183B39B
S315080030D001228A4000EB400109012C4B5A50072E69
S315080030E02FD804EB44094FEA091909F10409DFF856
S315080030F0A4A0B3000F2505FA03FB08FA03F5FFF7AA
S31508003100D9FB59F80A305D4005EA0B055D4049F8D8
S315080031100A50FFF7D3FBB8F1000F08D16FB30121AE
S3150800312001FA06F604EB44042401184B1E51BDE8C7
S31508003130F88F01228A4000EB40010901144B5A50CE
S31508003140CDE704EB44052D010C35DFF84890A6F1D0
S3150800315008039B000F2202FA03FA08FA03FBFFF79B
S31508003160A9FB55F809308BEA030202EA0A025A401B
S3150800317045F80920FFF7A2FBCDE7012101FA06F67B
S3150800318004EB44042401024B1E51D0E740D003400F
S3150800319040E0034030C00340064B4FF480329A6645
S315080031A003F51C3341F67132DA6303F50053012245
S315080031B0DA60704700900040074B41F67132DA63D7
S315080031C003F500520121D1600022DA63A3F5183312
S315080031D04FF480329A66704700000340024B4FF462
S315080031E000321A67704700BF005000404FF0402376
S315080031F0D3F894007047436813B9416070475B6819
S315080032005A68012AFBD159607047836813B98160EF
S3150800321070475B685A68012AFBD159607047C369D1
S31508003220032B05D89A1C00EB820251600133C36157
S315080032307047C269042A1DD84FF098431B6C13F4D3
S31508003240801FF9D0043292004FF098431A6502683D
S315080032501A6042681A6082681A600023C2699A4234
S3150800326008D99A1C00EB820251684FF09842116007
S315080032700133F3E770470000074B4FF480325A6674
S3150800328003F5E6239B69C3F38512827003F03F02B8
S3150800329042701B0B0370704700900040436813F0A0
S315080032A0010F00D1704710B50446FFF712FB636A99
S315080032B013F0010F01D10123E360FFF710FB10BDE6
S315080032C030B58646049C94460AB94FF0040C9C45D2
S315080032D038BF9C46DEF80820CCF1000010400CF1FF
S315080032E0FF35154000D0654628440144C3F1000C5B
S315080032F001EA0C0C5D1E294000D019466144DEF82F
S3150800330004309B1A01338A1A93420BD3CEF808105D
S31508003310002323700B4B63604FF4E563A3600A4BED
S31508003320E36030BD039909B1D21A0A6016232370E7
S31508003330044B636040F22273A360034BE3600020F2
S31508003340EFE700BF8C060208D00602082DE9F04117
S3150800335082B00A9D4AB908232B701F4B6B604FF445
S31508003360D963AB601D4BEB60FEE70E461C4617465D
S3150800337013B1013B23420AD04CB108232B70164BDC
S315080033806B6040F2CB63AB60144BEB60FEE7FFF774
S31508003390A0FA80460195099B0093089B2246394668
S315080033A03046FFF78DFF04462B7833B94046FFF7C2
S315080033B096FA204602B0BDE8F0814046FFF78FFA3C
S315080033C016232B70044B6B6040F2D763AB60034B3C
S315080033D0EB600024EDE700BF8C060208E806020849
S315080033E0F0B585B005460C4616461F466BB17CB14E
S315080033F002970023019301230093042332462146B2
S315080034002846FFF7A3FF05B0F0BD00F006F8EEE783
S31508003410004CEDE7081100207047FEE700B585B0BF
S315080034200C4B1B78012B09D0684600F093FF9DF8DA
S31508003430003063B9002005B05DF804FBFFF752FAC7
S3150800344010B16FF00500F6E74FF0FF30F3E74FF0E5
S31508003450FF30F0E774470020094B1B78012B01D099
S3150800346000207047074B1B78012B04D1064B1B78AD
S315080034701BB103207047012070470220704700BF28
S3150800348064450020744700207547002000B585B0C4
S31508003490FFF728FA58B9094B1B78012B0AD068465A
S315080034A000F088FE4FF0FF3005B05DF804FB6FF0C2
S315080034B00500F9E74FF0FF30F6E700BF7447002034
S315080034C000B585B0FFF70EFA70B90A4B1B781BB129
S315080034D0012005B05DF804FB684600F0C9FD9DF8BB
S315080034E0003023B90020F4E76FF00500F1E74FF04C
S315080034F0FF30EEE77547002010B584B00446FFF7A5
S31508003500F1F978B9002C08DD684600F0B1FD012014
S315080035109DF800304BB904B010BD684600F0F2FDC6
S315080035200020F5E76FF00500F5E74FF0FF30F2E70A
S3150800353000B585B0684602F083FD05B05DF804FB6A
S3150800354010B584B00446FFF7CDF950B96A46002194
S31508003550204602F087FD9DF800302BB9002004B004
S3150800356010BD6FF00500FAE74FF0FF30F7E70000EF
S3150800357030B585B00446FFF7B5F9002835D1B4B1A2
S31508003580A568F5B1E368132B31D915F0030F30D1CF
S3150800359000232B742168E9B16B460022284601F006
S315080035A0AFF99DF80030BBB9284605B030BD1420E8
S315080035B01BF0FCFB05460028F6D0012303740E49D0
S315080035C0EAE714201BF0F2FB05460028ECD001239D
S315080035D00374DFE70849DFE72B7C012B01D00025C0
S315080035E0E2E728461BF0EAFBF9E70025DCE70025B9
S315080035F0DAE70025D8E700BF0007020870B584B0EF
S31508003600A8B30D460646002934DBFFF762F9F468CD
S315080036102C43736805E05A6F02EA0401A24312D0EC
S315080036209B699BB1B3F87C2012F4807FF8D002F036
S315080036300F02042AEFD0082AF2D15A6F2240EFD09F
S3150800364024EA0204ECE724EA0104E9E7FFF747F96C
S315080036506B4600222946304601F0A2FB9DF8003051
S3150800366013B9204604B070BD6FF00204F9E76FF095
S315080036700304F6E76FF00304F3E7002853D0F0B528
S3150800368089B00E4615461C46074600294EDBB3F19F
S31508003690FF3F2ED09BBB4FF4004315F0010F33D0EC
S315080036A043F0040315F0020F01D143F48073FD685B
S315080036B004AA019203AA009222463146384601F02E
S315080036C06FF928439DF8103033B3312B37D81D2BAB
S315080036D038D31D3B142B1DD8DFE803F0201C1C1C17
S315080036E037191C1C1C1C1C1C1C1C1C1C371C1C1CD9
S315080036F03700FFF7F7F8E0B900231C46CDE7FFF7D8
S31508003700F1F8C8B90023C8E743F00803CAE76FF021
S31508003710010001E04FF0FF3009B0F0BD0028FBD1F1
S315080037206FF00200F8E76FF0030070476FF00300D0
S31508003730F2E76FF00300EFE76FF00300ECE74FF0F6
S31508003740FF30E9E74FF0FF30E6E76FF00200E3E706
S3150800375030B585B00446FFF7C5F800283CD1D4B18A
S31508003760A5680DB3E3681B2B38D915F0030F37D1BD
S3150800377000232B762168F9B16A46284601F0FEFB3C
S315080037809DF80030D3B914B3636813F0010F1ED047
S3150800379001236B761DE01C201BF008FB0546C0B113
S315080037A0012303760F49E7E71C201BF0FFFA0546BD
S315080037B078B101230376DDE70A49DDE72B7E012B85
S315080037C001D0002505E028461BF0F8FAF9E70023A2
S315080037D06B76284605B030BD0025FAE70025F8E7E0
S315080037E00025F6E70C07020830B589B005460C46F1
S315080037F0FFF778F810BB25B3B4B94FF40042B4F11B
S31508003800FF3F13D004AB009303AB2146284601F0D3
S3150800381005FC9DF81030222B16D0232B0AD03BB17D
S315080038206FF0020009B030BD0022E8E70024E9E79E
S315080038300020F7E76B7E53B10020F3E76FF0050031
S31508003840F0E76FF00300EDE76FF00100EAE76FF0CD
S315080038500200E7E710B584B00446FFF743F868B9F5
S315080038607CB16A460021204601F0B4FD9DF800307F
S3150800387053B1232B0AD1002004B010BD6FF0050008
S31508003880FAE76FF00300F7E70020F5E76FF00200AC
S31508003890F2E710B584B00446FFF724F898B9ACB13E
S315080038A06A460121204601F0EBFC9DF8003083B9F9
S315080038B0237E012B02D0002004B010BD20461BF049
S315080038C07DFA0020F8E76FF00500F5E76FF00300D2
S315080038D0F2E76FF00200EFE770B584B005460E46D2
S315080038E01446FEF7FFFF002837D1002D37D0B4B1B4
S315080038F0A568F5B1E368172B33D915F0030F32D154
S3150800390000232B742168E9B16B463246284601F03C
S31508003910B3FE9DF80030BBB9284604B070BD182028
S315080039201BF044FA05460028F6D0012303740F4914
S31508003930EAE718201BF03AFA05460028ECD00123DE
S315080039400374DFE70949DFE72B7C012B01D000254B
S31508003950E2E728461BF032FAF9E70025DCE70025FE
S31508003960DAE70025D8E70025D6E700BF14070208DE
S3150800397030B330B589B00C46054681B904AB00931F
S3150800398003AB4FF40042002101F0B6FE9DF810305B
S31508003990E3B1222B1CD16FF0010009B030BDFEF750
S315080039A0A1FF80B9B4F1FF3F08D004AB009303AB85
S315080039B000222146284601F09FFEE7E70024F4E7A7
S315080039C06FF0030070476FF00300E6E70020E4E7B6
S315080039D06FF00200E1E760B100B585B06A460021E4
S315080039E001F072FF9DF8003033B9002005B05DF88C
S315080039F004FB6FF0030070476FF00200F6E710B59E
S31508003A0038B10446FEF756FFE468FEF757FF20462E
S31508003A1010BD0024FBE710B584B00446FEF762FF2C
S31508003A2098B9ACB16A460121204601F0EFFF9DF82E
S31508003A30003083B9237C012B02D0002004B010BDCE
S31508003A4020461BF0BBF90020F8E76FF00500F5E704
S31508003A506FF00300F2E76FF00200EFE72DE9F04F91
S31508003A608FB006460F461446FEF73CFF002840F086
S31508003A70F980002E00F0F880002C34D0A568002DBF
S31508003A804DD0E368C32B40F2F38015F0030F40F0E6
S31508003A90F180002385F8BC30D4F814B0BBF1000FD0
S31508003AA047D02369002B5AD0002B6BD0D4F810903E
S31508003AB019F0070F66D1002385F8BD30D4F80080C9
S31508003AC0B8F1000F68D0A369002B7AD0B3F1FF3F95
S31508003AD000F0A180372B62DC5FFA83FACAF1370A55
S31508003AE05FFA8AFA6FE0C4201BF060F905460028E1
S31508003AF000F08D80012380F8BC304FF480601BF005
S31508003B0055F98146002800F0B180012385F8BD30BB
S31508003B104FF01F0ADFF864814FF4806B53E0C4202E
S31508003B201BF044F90546002871D0012380F8BC3003
S31508003B30B2E74FF480601BF039F9814628B10123BA
S31508003B4085F8BD304FF4806BB8E795F8BC30012B8B
S31508003B5001D04D465BE028461BF030F9F9E7584698
S31508003B601BF024F9814618B1012385F8BD30A5E775
S31508003B7095F8BC30012B01D04D4648E028461BF08D
S31508003B801DF9F9E795F8BC30012B01D000253EE078
S31508003B9028461BF013F9F9E7DFF8E08093E795F874
S31508003BA0BD30012B05D095F8BC30012B05D000257A
S31508003BB02DE048461BF002F9F5E728461BF0FEF80B
S31508003BC0F5E74FF01F0A0AAB00222B4905F19400CE
S31508003BD000F096FE9DF8283003BB2BF00704A408D6
S31508003BE00AAB0893072307930023069305930493C8
S31508003BF003940293CDF80490CDF800A03B463246D4
S31508003C004146284601F0E6FF9DF82830C3B9284604
S31508003C100FB0BDE8F08F4FF0400AD4E795F8BD30F5
S31508003C20012B05D095F8BC30012B05D00025EEE711
S31508003C3048461BF0C3F8F5E728461BF0BFF8F5E73A
S31508003C4095F8BD30012B05D095F8BC30012B05D071
S31508003C500025DCE748461BF0B1F8F5E728461BF0D7
S31508003C60ADF8F5E70025D2E70025D0E70546CEE70B
S31508003C700025CCE70025CAE72C070208200702081A
S31508003C80044B1B78012B01D000207047024B1868A3
S31508003C90704700BF74470020784700202DE9F0419F
S31508003CA084B007460C461646FEF71CFE002840F070
S31508003CB0DC80002F00F0DB80002C00F0DA80033473
S31508003CC024F003053EB3B468002C3ED0F3683B2BC2
S31508003CD040F2D18014F0030F40F0CF80002384F81F
S31508003CE024307069002839D0D6F81080B8F1000F52
S31508003CF06AD0B8F1000F00F0888005FB07F39842F8
S31508003D00C0F08380336913F0030F7ED1236200234A
S31508003D1084F825302CE03C201BF048F8044600289F
S31508003D2044D0012380F8243005FB07F01BF03EF849
S31508003D300646206220B1012384F82530504E1AE049
S31508003D4020461BF03BF8344630E03C201BF02EF8AA
S31508003D50044658B3012380F82430C2E705FB07F070
S31508003D601BF024F88046206220B3012384F825300E
S31508003D703668002E53D0A762E56200232363636387
S31508003D80A3636B463A463146204601F075FC9DF81A
S31508003D900030002B45D16B460022314604F1100055
S31508003DA001F06AFC9DF80030002B4CD1204604B087
S31508003DB0BDE8F08194F82430012B01D04446F5E79C
S31508003DC020461AF0FBFFF9E705FB07F3984208D3EC
S31508003DD01AF0ECFF8046206268B1012384F825308A
S31508003DE0C6E794F82430012B01D04446DEE7204686
S31508003DF01AF0E4FFF9E794F82430012B01D0444681
S31508003E00D4E720461AF0DAFFF9E794F82430012BB4
S31508003E1001D00024CAE720461AF0D0FFF9E7184E69
S31508003E20A9E794F82530012B05D094F82430012B06
S31508003E3005D00024BAE7206A1AF0C0FFF5E7204645
S31508003E401AF0BCFFF5E794F82530012B05D094F855
S31508003E502430012B05D00024A8E7206A1AF0AEFF0B
S31508003E60F5E720461AF0AAFFF5E700249EE70024A6
S31508003E709CE700249AE7002498E7002496E700BF09
S31508003E8038070208002845D0F0B589B00E461D4609
S31508003E90044683B903AB009307AB4FF400420021F5
S31508003EA001F02AFC9DF80C308BB1222B38D16FF02B
S31508003EB0010009B0F0BDFEF715FD70BB03AB00931A
S31508003EC007AB00222946204601F016FCEAE7FEF772
S31508003ED000FD0546676BE26A7B1CA16AB3FBF1F03D
S31508003EE001FB10336363206A314602FB07001AF0B0
S31508003EF07DFF236B013323632846FEF7F0FC03AAF4
S31508003F00002104F1100001F0DFFC9DF80C3053B9D4
S31508003F100020CEE76FF0030070476FF00300C8E794
S31508003F206FF00200C5E76FF00200C2E700284AD02A
S31508003F30F0B589B00F4616461D4604468BB903AB45
S31508003F40009307AB4FF400420021103001F0D4FB78
S31508003F509DF80C3093B1222B3BD16FF0010009B0CC
S31508003F60F0BDFEF7BFFC88BB03AB009307AB00228E
S31508003F70294604F1100001F0BFFBE9E7FEF7A9FCAA
S31508003F800546A06BE26A431CA16AB3FBF1FC01FB80
S31508003F901C33A363216A02FB001138461AF026FF78
S31508003FA0236B013B23630EB1002333702846FEF7CB
S31508003FB096FC03AA0021204601F086FC9DF80C30E9
S31508003FC053B90020CBE76FF0030070476FF003008A
S31508003FD0C5E76FF00200C2E76FF00200BFE770475F
S31508003FE01D4B1B78012B00D0FEE71C4B1B7803B139
S31508003FF0704770B5FEF76DFC0446194D2E7801F032
S31508004000F7FA287040281FD0164B53F83020164B65
S315080040101A60402E11D0144B1A68144B1B689A422A
S315080040200ED00F4B1B78402B12D002F01AFA2046FE
S31508004030FEF755FCBFF36F8F70BD00E000BFEAE7DF
S315080040402046FEF74CFCF7E7074B00221A60E8E724
S3150800405007F037FBE9E700BF7447002075470020E3
S3150800406071450020744500207C47002078470020D1
S3150800407010B5044660B1FEF735FC60B12023237005
S315080040801C4B636040F22133A3601B4BE360FEE7E1
S31508004090FFF7C3F9EFE7194B1B78012B09D0022369
S315080040A02370144B636040F22533A360124BE36020
S315080040B010BD134B1B78F92B09D91E2323700D4B02
S315080040C0636040F22A33A3600B4BE360F0E7FEF728
S315080040D000FC0B4A137801331370FEF700FC00232B
S315080040E02370044B636040F23533A360024BE360F0
S315080040F0DEE700BF48070208C80702087447002021
S315080041007547002010B5044660B1FEF7EBFB60B1B9
S3150800411020232370234B636040F24D33A360224B68
S31508004120E360FEE7FFF779F9EFE7204B1B78012BF1
S3150800413009D0022323701B4B636040F25133A360FE
S31508004140194BE36010BD1A4B1B784BB91F2323701C
S31508004150144B636040F25633A360134BE360F1E7F8
S31508004160FEF7B7FB124A1378013BDBB213706BB943
S31508004170FEF7B5FBFFF734FF00232370094B636096
S315080041804FF45A73A360084BE360DBE7FEF7A7FB1F
S315080041902D232370034B636040F25E33A360024B0A
S315080041A0E360CFE748070208B8070208744700200B
S315080041B07547002010B5044668B1264B1B78012BBD
S315080041C00CD013232370244B636040F2FE33A360A4
S315080041D0224BE360FEE7FFF720F9EEE7204B1B884A
S315080041E04BB9092323701C4B636040F20943A36053
S315080041F01A4BE360FEE71B4B1B784BB11F2323705A
S31508004200154B636040F20C43A360144BE360FEE772
S31508004210FEF772FB48B11F2323700F4B636040F211
S315080042200F43A3600D4BE360FEE701F0E1F90E4A88
S3150800423010700E4A10700E4A52F830300D4A13604C
S315080042400D4A1360074B01221A7002F0C3F8FFF7F4
S31508004250E4F810BD6445002048070208B0070208C4
S3150800426080470020744700207145002070450020D3
S31508004270744500207C4700207847002008B501F0E7
S31508004280B7F9402801D0002008BD0120FCE700232B
S3150800429003604360704791F827C0036833B153B190
S315080042A093F82720624506D89B69F8E78B61CB61AE
S315080042B00160416070473BB1DA695AB18B61DA69CE
S315080042C0CA619161D96170478B614368CB61996115
S315080042D0416070478B61CA61D96101607047036AA2
S315080042E063B15A68926952B1C2695AB1816971B1AA
S315080042F09161CA6100238361C361036270475A6092
S315080043009A60F7E782690021D1615A60F2E7916104
S315080043109A60EFE770B5056A6B689B6943B1044616
S315080043202E1DFFF7DCFF256221463046FFF7B3FF57
S3150800433070BD0000002307E0054A002142F833104B
S3150800434002EBC302516001333F2BF5D9704700BF1A
S315080043507445002038B50446002848D0614B5A6891
S315080043609AB11B68002B45D05F4A13605E4B1A68EA
S315080043705E4B1A605B4B5B685D4A13609B005D4A47
S3150800438013605D490A6813440B60564B1A89DAB103
S3150800439002EB4202234692005249096B5748FFF73F
S315080043A01FF8574B1860237803BB564B18604D4BC4
S315080043B01B89554A138003EB43039B00534A13603A
S315080043C04D490A6813440B60464B5A6B504B1A60AA
S315080043D001F072FF04F09AFBC8B1012323704D4B1C
S315080043E063604FF4DA73A3604B4BE36038BDFFF7A5
S315080043F014F8B3E7234692003A49096B4748FEF793
S31508004400EFFF394B18602378002BAFD0EEE704F0A6
S3150800441001FD434B18603E4B1D68A84209D209238B
S3150800442023703C4B63604FF4DD73A3603A4BE36043
S31508004430FEE7A84223D002460023002001211AF0F5
S31508004440EDFA05FB00F0374A1060B5F57A7F1AD801
S31508004450354B00221A600023344A1370344A13700D
S31508004460344A1360344A1360344A1370344A13705A
S315080044701F4B1B68D3B11D4A1268AAB916E0294B0F
S3150800448000221A60E1E72A460023002001211AF0DB
S31508004490C5FA4FF47A7300FB03F3234A1360DAE78D
S315080044A0013B002142F8041B002BF9D1254B0022C1
S315080044B01A7001F091F8FFF73DFF134B1B882BB1DB
S315080044C0204600F023FD2378002B8FD1204601F0EB
S315080044D057FB2378002B89D1FFF781FD1A4B012260
S315080044E01A7083E71C1100202C4500203045002057
S315080044F03445002038450020284500209C0702083E
S315080045003C45002040450020444500204845002001
S315080045104C45002048070208D40702088807020805
S315080045205845002054450020504500207447002077
S3150800453075470020784700207C47002070450020FA
S3150800454071450020824700206445002090F82730F6
S315080045500B4A52F833204AB1C26000220261084A67
S3150800456052F83310086142F833007047C26002619E
S31508004570034A42F8330002EBC3035860704700BF92
S315080045807445002090F827200B4B53F832304BB176
S315080045900023C360084B03EBC2035A680261D0606C
S315080045A058607047C3600361034B43F8320003EB5E
S315080045B0C2035860704700BF7445002010B5044612
S315080045C090F8270001F026F894F82720054B1B7869
S315080045D09A4203D02046FFF7B9FF10BD2046FFF7E1
S315080045E0D1FFFAE77045002038B50446154690F81D
S315080045F02630072B3FD8DFE803F0181804041818EC
S31508004600222200230366A0F86430FFF768FE94F8B8
S315080046102630032B0AD02046FFF7D0FF002384F864
S31508004620263084F8255084F8243038BD04F1440037
S3150800463004F0A8FA0028EED0FEF7EFFEEBE7002319
S315080046400366A0F86430FFF74AFE94F82630072B75
S3150800465008D0042384F8263084F82550002384F8EB
S315080046602430E2E704F1440004F08CFA0028F0D084
S31508004670FEF7D3FEEDE7FEF7D0FED6E710B50C46FB
S3150800468091F82610072907D8072907D8DFE801F087
S315080046901E1E09091E1E2828FF2917D0FEF7BDFE73
S315080046A014E02266A4F8643010B12046FFF717FE1E
S315080046B094F82630032B0AD02046FFF77FFF002305
S315080046C084F8263084F8253084F8243010BD04F1A7
S315080046D0440004F057FA0028EED0FEF79EFEEBE7FA
S315080046E02266A4F8643010B12046FFF7F8FD94F866
S315080046F02630072B08D0042384F82630002384F8B4
S31508004700253084F82430E1E704F1440004F03AFA4D
S315080047100028F0D0FEF781FEEDE770B50C46FEF7EF
S31508004720D8F8054694F82630013B062B4DD8DFE825
S3150800473003F0464C044C524C040094F82430042BE5
S315080047402FD0002600232366A4F864302046FFF7FE
S31508004750C6FD94F82630032B26D0072B2BD003232F
S3150800476084F82530002384F8243076B396F8273069
S3150800477096F82820934228D094F82720934224D1EB
S31508004780304600F06BFD96F82810814228BF014696
S31508004790C9B296F827308B4217D0304601F0FEFA98
S315080047A013E0236A1E69CDE72046FFF707FF0023BB
S315080047B084F82630D3E7042384F82630CFE700238D
S315080047C084F826302046FFF7F9FE2846FEF787F8D4
S315080047D0FFF706FC70BD042384F82630F5E7036866
S315080047E04268934215D0D9688A420AD010B4002488
S315080047F00C61DC601A61D360016043605DF8044BAC
S3150800480070471A610021D9601161D3600260436064
S315080048107047704710B5044690F827100269C368B8
S3150800482032B1D360B3B11A6100232361E36010BDCE
S315080048302BB100221A610A4A42F83130F4E7084BD4
S3150800484043F8312003EBC1035A6090F8270000F0C3
S31508004850F9FEE9E7024B03EBC1014A60E4E700BF52
S315080048607445002070B582B0044639B9022380F831
S3150800487026302046FFF7CEFF02B070BD0D46002653
S3150800488004F0C8FAA5FB00010D4B1A68801841F11F
S3150800489000010138334641F1FF311AF0BFF80146ED
S315080048A0019600962346074A04F1440004F0EEF9FF
S315080048B018B9032384F82630DBE7FEF7AEFDF8E7E0
S315080048C04C4500201B47000810B504460B4B1868DA
S315080048D080F82410002380F825301146FFF7C2FF20
S315080048E034B1064B19680C62201DFFF7D4FC10BDC5
S315080048F0024B1B6800221A62F9E700BF78470020BE
S315080049002DE9F041044616461D465BB1FDF7EAFF60
S3150800491058B120232B70174B6B605523AB60164B91
S31508004920EB60FEE7FEF779FDF0E7CCB1FDF7D1FFC6
S315080049308046002727606760A760E7600F4B236003
S31508004940E660201DFFF7A3FC4046FDF7C8FF2F7061
S31508004950084B6B607023AB60074BEB60BDE8F081DA
S315080049600A232B70034B6B605823AB60024BEB603A
S31508004970FEE700BFDC07020834080208464C414738
S3150800498010B5064C24686167A4F87C200022A2674B
S315080049901A460121FFF798FF10BD00BF784700208F
S315080049A02DE9F04F83B006468A4600921D460D9CB7
S315080049B0002C4BD02FB2002F4BDA002F57DAA04B22
S315080049C093F80080B8F1010F5FD1002E6CD06B1EF2
S315080049D09BB2012B72D9042D70D0082D6ED040F2EF
S315080049E001139D426AD0B5F5817F67D0B5F5827F00
S315080049F064D0B5F5847F61D048F201039D425DD04D
S31508004A0048F202039D4259D048F204039D4255D00C
S31508004A1048F208039D4251D048F201139D424DD0F9
S31508004A2048F202139D4249D048F204139D4245D0EC
S31508004A3048F208139D4241D008232370814B6360D6
S31508004A404FF4A373A360804BE360FEE7FEF7E5FC33
S31508004A50B0E7FDF747FF0028AFD020232370794B36
S31508004A60636040F23513A360774BE360FEE7FDF71A
S31508004A7043FF0028A3D01F232370724B636040F2C4
S31508004A803913A360704BE360FEE7022323706D4B76
S31508004A9063604FF49F73A3606B4BE3604FF00009AC
S31508004AA0484603B0BDE8F08F0A232370654B636060
S31508004AB040F24313A360644BE360FEE73268634B3E
S31508004AC09A4209D00C2323705E4B63604FF4AC7393
S31508004AD0A3605D4BE360FEE715F4807F01D14FF0DC
S31508004AE000080C9B13B100230C9A136005F00F0BFA
S31508004AF0FDF7EFFE0190BBF1040F19D0BBF1080FCB
S31508004B0063D00198FDF7EBFEFEF787FCFFF768FA1E
S31508004B10FDF7DFFE05464E4B1B6893F82530032B41
S31508004B2000F2F180DFE813F0A500C500E300D1002C
S31508004B30F36803EA0A093AEA03020FD0002F26DBD4
S31508004B40444B1B78002B31D1009B2A4651463046F0
S31508004B50FFF716FF0198FDF7C2FED7E7B8F1010F78
S31508004B6011D03B4B1B680BB1C3F878900198FDF741
S31508004B70B6FE00232370334B63604FF4BB73A36008
S31508004B80314BE3608CE723EA0903F360E9E7019810
S31508004B90FDF7A5FE1D2323702A4B636040F27D13A3
S31508004BA0A360294BE3604FF0000979E70198FDF708
S31508004BB096FE2D232370234B63604FF4C273A360C4
S31508004BC0214BE3604FF000096AE7F36813EA0A0924
S31508004BD00FD1002F26DB1F4B1B78002B3CD1009BE7
S31508004BE02A4651463046FFF7CBFE0198FDF777FE79
S31508004BF08CE7B8F1010F11D0154B1B680BB1C3F840
S31508004C0078900198FDF76BFE002323700D4B6360C7
S31508004C104FF4D173A3600C4BE36041E723EA090321
S31508004C20F360E9E70198FDF75AFE1D232370054B4B
S31508004C30636040F2A913A360034BE36030E700BF4B
S31508004C4074470020DC07020828080208464C41473A
S31508004C5078470020754700200198FDF740FE2D2370
S31508004C602370354B63604FF4D873A360334BE3600E
S31508004C7016E700232370304B636040F22D23A360B0
S31508004C802E4BE3602378002B53D12D4B1B68D3F8AA
S31508004C907890B8F1010F3BD02846FDF720FE002397
S31508004CA02370254B636040F26F23A360234BE360B8
S31508004CB0F6E6FDF714FE212323701F4B63604FF4BD
S31508004CC00E73A3601D4BE360DCE70C9B13B1002356
S31508004CD00C9A13602846FDF702FE22232370164B12
S31508004CE0636040F24123A360144BE360CAE7FDF713
S31508004CF0F6FD31232370104B63604FF41373A360E2
S31508004D000E4BE360BEE7FDF7EAFDFEF786FBB9E763
S31508004D10BBF1040F02D0BBF1080F04D1F36823EAF4
S31508004D200903F360B8E72846FDF7D9FDFEF775FBDA
S31508004D30B2E74FF00009B3E6DC07020828080208C4
S31508004D407847002010B504468167002380F825308F
S31508004D5080F8243090F82630072B1DD8DFE803F0BA
S31508004D600C0C04040C0C1818032B09D02046FFF76A
S31508004D7025FC002384F826302046FFF7B0FA10BD3C
S31508004D80443003F0FFFE0028F0D0FEF746FBEDE7BF
S31508004D90042380F82630EFE7FEF73FFBECE7000038
S31508004DA02DE9F04105460F4616461C4683B1534B7E
S31508004DB01B78012B0FD002232370514B636040F2FE
S31508004DC03233A3604F4BE36000252846BDE8F081E7
S31508004DD0FEF723FBEBE795B1012E1AD9B6F5004F7E
S31508004DE017D048F201039E4213D008232370444B80
S31508004DF0636040F23A33A360424BE360FEE70A235E
S31508004E0023703F4B636040F23733A3603D4BE3604A
S31508004E10FEE72A683C4B9A4209D00C232370384B8C
S31508004E2063604FF45073A360364BE360FEE7FDF70B
S31508004E3050FD8046B6F5004F12D007D886B1012E30
S31508004E4008D1EB6823EA0703EB600CE048F201039C
S31508004E509E42F6D04046FDF742FDFEF7DEFA02E036
S31508004E60EB683B43EB606868A0B94046FDF737FD41
S31508004E7000232370224B636040F26233A360214B08
S31508004E80E360ED68A1E7EA68436F02EA030193432A
S31508004E9010D03846D0B18769B0F87C3003F00F03DC
S31508004EA0042BF0D0082B09D04046FDF718FDFEF775
S31508004EB0B4FAEEE70022FFF745FFEAE7EB68416F31
S31508004EC01940E6D00022FFF73DFFE2E74046FDF72E
S31508004ED006FD16F4004F0ED0FDF7FBFCED68FDF756
S31508004EE0FEFC00232370064B636040F2A333A360E5
S31508004EF0044BE36069E7FFF773F8EDE774470020B2
S31508004F00DC0702081C080208464C414710B4164B39
S31508004F101B6803F10C01154AB2F800C00CF1FF3CFE
S31508004F201FFA8CFC002207E0196000245C601C81D3
S31508004F300C330C31013292B26245F5D300221A6065
S31508004F405A601A810A4B084909681960074909888D
S31508004F509980DA800270074B43605D238360064BB5
S31508004F60C3605DF8044B7047404500204445002067
S31508004F70684500204408020884080208F8B5044673
S31508004F8015465AB1FDF7AEFC58B120232B70174BC6
S31508004F906B605223AB60164BEB60FEE7FEF73DFAFB
S31508004FA0F0E7D4B1FDF795FC074600262660666053
S31508004FB0A660E6602661666120460E4B40F8043B13
S31508004FC0FFF765F93846FDF78AFC2E70074B6B60CC
S31508004FD06C23AB60064BEB60F8BD0A232B70034BC2
S31508004FE06B605523AB60024BEB60FEE79408020842
S31508004FF0F80802084D55545808B5054B03600023B8
S31508005000C360036103750430FFF741F908BD00BFAB
S315080050104E4F4E45C36ACB60C16270472DE9F041D9
S3150800502005460F461646069C64B1FDF75BFC60B163
S31508005030202323707E4B636040F23313A3607D4BBD
S31508005040E360FEE7FEF7E9F9EFE76DB1B6B1B6F54D
S31508005050004F13D008232370754B636040F2391351
S31508005060A360744BE360FEE70A232370704B63600A
S315080050704FF49B73A3606F4BE360FEE72A686E4BA1
S315080050809A4209D00C232370694B636040F23D13A2
S31508005090A360684BE360FEE736B2002E0EDA674B74
S315080050A01B78012B18D002232370614B636040F2F2
S315080050B04513A3605F4BE360BDE8F081FDF71CFC78
S315080050C00028ECD01F232370594B63604FF4A0735C
S315080050D0A360584BE360FEE7FDF7FBFB80462B7D9C
S315080050E03BB32869564A1268904237D0002E53DBE4
S315080050F0544B1B78002B5CD190F8273092F8271078
S315080051008B4263D83A4604212846FFF7DDFB404622
S31508005110FDF7E5FBFEF764FFFDF7DBFB0546484BAD
S315080051201B6893F82530032B7ED8DFE803F0525F1F
S315080051307369434B1868286101232B752946FFF7C5
S3150800514069FF4046FDF7CBFB00232370384B6360AD
S315080051504FF4AA73A360374BE360ADE7FF2B0ED07D
S3150800516001332B754046FDF7BAFB23232370304BDA
S31508005170636040F26913A3602E4BE3609CE74046E8
S31508005180FDF7ADFB1E232370294B636040F25D13C8
S31508005190A360284BE3608FE74046FDF7A0FB1D237D
S315080051A02370234B63604FF4BB73A360214BE3600A
S315080051B082E74046FDF793FB2D2323701C4B636063
S315080051C04FF4C173A3601B4BE36075E700F0E6FD7F
S315080051D098E700232370164B63604FF4D073A360DF
S315080051E0144BE3602846FDF77AFB65E72123237015
S315080051F00F4B63604FF4D573A3600E4BE360F1E782
S31508005200222323700A4B63604FF4DA73A360094BB9
S31508005210E360E7E731232370054B63604FF4DF73E0
S31508005220A360044BE360DDE7FEF7F7F8DAE700BFB3
S3150800523094080208E00802084D555458744700209F
S3150800524078470020754700202C3001E003F10C0058
S3150800525003688B42FAD1DB680360704700F12C03C0
S315080052603F2000E00C331B6843B15A68002AF9D086
S3150800527092F827209042F5D91046F3E770470000C8
S315080052802DE9F84305460E4614465AB1FDF72AFBA2
S3150800529058B1202323704B4B6360A523A3604A4B68
S315080052A0E360FEE7FEF7B9F8F0E765B12A68474B11
S315080052B09A4211D00C232370424B6360AB23A36040
S315080052C0414BE360FEE70A2323703E4B6360A82345
S315080052D0A3603D4BE360FEE73D4B1B78012B0BD0EB
S315080052E002232370374B6360AF23A360364BE3601A
S315080052F000263046BDE8F883FDF7EBFA804666B12E
S31508005300012E2BD0FDF7EBFA082323702D4B636093
S31508005310F323A3602C4BE360FEE76B6853B1FDF7FC
S31508005320DEFA2E232370274B6360C623A360264B21
S31508005330E360DEE7286910B12946FFF785FF2846AE
S31508005340FFF75AFE4046FDF7CAFA002323701D4BA5
S315080053506360C323A3601C4BE360CAE70026686842
S3150800536030B102220021FFF73FF90136B6B2F6E75F
S315080053702F691FB129463846FFF766FF2FB197F800
S31508005380273097F828904B4510D12846FFF734FE6A
S315080053904046FDF7A4FAFEF723FE00232370094BC7
S315080053A06360EE23A360084BE360A2E73846FFF785
S315080053B055FF4946814528BF0146C9B2384600F01F
S315080053C0EDFCE2E794080208EC0802084D5554582B
S315080053D0744700202DE9F04782B005460E4614466C
S315080053E062B1FDF77FFA60B120232370624B6360D8
S315080053F040F25723A360614BE360FEE7FEF70DF822
S31508005400EFE76DB1B6B1B6F5004F13D00823237098
S31508005410594B636040F25D23A360584BE360FEE797
S315080054200A232370544B636040F25A23A360534BFC
S31508005430E360FEE72A68524B9A4209D00C23237090
S315080054404D4B636040F26123A3604C4BE360FEE77B
S315080054504C4B1B78012B0BD002232370464B636001
S3150800546040F26523A360454BE36002B0BDE8F087D0
S31508005470FDF72FFA80462B69434A1068834233D1D9
S315080054802B7D013BDBB22B75002B3AD12946FFF762
S31508005490DBFE6B68002B41D03B4BD3F8009099F8A4
S315080054A027A099F82870BA4547D16F682F6101235C
S315080054B02B7529463846FFF7ADFD002200921346A4
S315080054C039462846FFF7DAF84046FDF708FA16F493
S315080054D0004F4ED000232370274B636040F2AD2364
S315080054E0A360264BE360C0E74046FDF7F8F91B23A7
S315080054F02370214B63604FF41B73A3601F4BE3605B
S31508005500B3E74046FDF7EBF9232323701A4B636094
