:020000040800F2
:1000000000100020B50A000845770008497700086D
:10001000297A00084D77000855770008B10A0008D2
:10002000B10A0008B10A0008B10A0008B10A0008C4
:1000300059770008B10A0008735E0008B10A000889
:10004000B10A0008B10A0008B10A0008B10A0008A4
:10005000B10A0008B10A0008B10A0008B10A000894
:10006000B10A0008B10A0008B10A00080D0A000828
:10007000FD090008B10A0008C5020008B10A00081D
:10008000B10A0008B10A0008B10A0008B10A000864
:10009000B10A0008B10A0008B10A0008B10A000854
:1000A000B10A0008B10A0008B10A0008B10A000844
:1000B000B10A0008B10A0008ADCE01088DD80108C8
:1000C00045D8010841D8010875D0010889D8010830
:1000D00049D8010861D801084DD80108EDD80108B8
:1000E000CDD80108B10A0008B10A0008B10A000819
:1000F000B10A000831680008B10A0008B10A000816
:10010000B10A0008B10A0008B10A0008B10A0008E3
:10011000B10A0008B10A0008B10A0008B10A0008D3
:10012000B10A0008B10A0008B10A0008B10A0008C3
:10013000B10A0008B10A0008B10A0008B10A0008B3
:10014000B10A0008B10A0008B10A000885B2000827
:10015000B10A0008B10A0008B78C000885BA010886
:10016000B10A0008B10A0008B59D0108BB9D01084D
:1001700010B5054C237833B9044B13B1044800E0A3
:1001800000BF0123237010BDE41400200000000014
:10019000704A020808B5034B1BB10349034800E04D
:1001A00000BF08BD00000000E8140020704A0208EB
:1001B000A3F5803A704700BF174B002B08BF134BC5
:1001C0009D46FFF7F5FF00218B460F461348144A62
:1001D000121A1EF02AFB0E4B002B00D098470D4B35
:1001E000002B00D098470020002104000D000D488E
:1001F000002802D00C4800E000BF1EF0ABFA20003F
:10020000290000F0B7FA1EF091FA00BF00000800C4
:10021000000000000000000000100020E414002096
:1002200060630020000000000000000010B5002402
:1002300006E04FF4FA7008F001FB09F0B7FE04463F
:10024000002CF6D1642008F0F9FA032000F0F2FB4C
:1002500080B9194809F030FE0028FAD1032000F0D7
:10026000E9FB90B900F0DAF90446032000F0E2FB64
:10027000B0B910BD00F0FEFB00F0FDFB22460F49B7
:100280000F4B186806F056FBE3E700F0F3FB00F0B5
:10029000F2FB224609490A4B186806F04BFBE1E7DE
:1002A00000F0E8FB00F0E7FB22460449044B186825
:1002B00006F040FBDDE700BF9C10002060F801085D
:1002C00070170020164B0222DA64164B1B7833B3EA
:1002D000144B00221A70144BAF225A64124B9B6CC1
:1002E00013F0400FFAD000220AE0104B9B5CDBB207
:1002F0000D494B640C4B9B6C13F0400FFAD001324C
:100300000B4B1B689342F0D8074BAC225A64064B48
:100310009B6C13F0400FFAD0014B02221A65704714
:1003200000200A400415002000000A400C1500209F
:100330000C1600200C4B4FF0070C83F800C04FEA5E
:10034000102C83F801C0C0B29870C9B2D9701A716C
:1003500005225A71054B06221A60054B01221A70BC
:10036000044B02221A6570470C1500200C16002061
:100370000415002000100A40054B00221A700123CA
:10038000044A1360044A1370044B02221A65704732
:100390000C1500200C1600200415002000100A4047
:1003A00010B58AB00DF1040C0C4C0FCCACE80F006A
:1003B0000FCCACE80F002368CCF8003001AA002174
:1003C000074803F049F8074B186008B10AB010BDA0
:1003D0005921054807F0A6F8F8E700BFACF8010876
:1003E00071040008001500209CF8010810B588B0C1
:1003F00001213A2001F058F80121572001F054F86A
:10040000012304220621002002F058FBEC46144C84
:100410000FCCACE80F0094E80F008CE80F004FF40D
:10042000612302934FF44073ADF80E300D4B4FF43F
:10043000C022C3F8FC241022C3F8E4240A4C694605
:10044000204602F02FFB04F5005402232365074BDE
:100450004FF48042C3F880211A6008B010BD00BF7D
:10046000D0F8010800C0034000000A4000E100E0AD
:1004700008B5FFF7BBFF054B00221A604FF4FA7076
:1004800002F05CFDFFF778FFF8E700BF08150020D9
:1004900008B509F0F7FC40B90F4B1B6800221A7031
:1004A000032000F0C7FA60B908BD0C4800F00BFC4F
:1004B00000F00AF90A4B1988074B18680EF03FFA4A
:1004C000EEE700F0D7FA00F0D6FA0649064B1868B6
:1004D00006F030FAE8E700BF10160020E4FE01083D
:1004E000AC100020F0F801087017002010B5044689
:1004F0000A4800F0E8FB032000F09CFA18B92046F7
:1005000000F008F910BD00F0B5FA00F0B4FA0449A3
:10051000044B186806F00EFAF1E700BFE4FE01088C
:10052000F8F801087017002008B5034800F0D0FB68
:10053000024800F0CDFB08BDCCFE0108E4FE010836
:1005400070470170427043609DF800300372BDF83F
:1005500004304381BDF8083083819DF80C308373EB
:100560009DF81030C373704710B586B090380628D8
:100570003BD8DFE800F00428263A3A2631001F4C29
:100580001F49204608F036FF0023049301220392FE
:100590001C4A1288029201931B4A12780092FA2296
:1005A0008B211A48FFF7CDFF194B198820680EF0F0
:1005B000C6F9184800F087FB00F04AF8164800F02A
:1005C00082FB06B010BD144800F087FB114800F014
:1005D00084FB00F023F8F4E70F4800F07EFB0D48A1
:1005E00000F07BFB00F01AF8EBE70B4800F075FB1E
:1005F000084800F072FB00F011F8E2E71016002046
:1006000091040008D01100201E5B00201416002069
:10061000AC100020E4FE0108CCFE010800B583B058
:100620000622002168461EF000F98C23ADF8023046
:100630000B23ADF8043040F2FF13ADF800306A46EA
:100640004FF6FF71032009F0CBFC03B05DF804FB0B
:1006500000B587B000228DF80820194B19788DF865
:10066000091059788DF80A105968080E8DF80B009A
:10067000080C8DF80C00080A8DF80D008DF80E108E
:10068000197A8DF80F105889010A8DF810108DF81D
:10069000110099894FEA112C8DF812C08DF81310B2
:1006A0009B7B8DF81430074B1B78019302AB0093B2
:1006B0000D23012109F03AFC07B05DF804FB00BFEF
:1006C00014160020AE10002000B585B001218DF871
:1006D00008100E4843681A0E8DF809201A0C8DF880
:1006E0000A201A0A8DF80B208DF80C30FA238DF8A9
:1006F0000D30074B1B78019302AB009306230022B9
:10070000408909F013FC05B05DF804FB14160020C5
:10071000AE10002008B50279154B9B7B9A4220D180
:100720004288134B5B899A421DD1037813F0010F65
:100730001BD0826813789A2B03D0FF2B0DD000209A
:1007400010E092F802C0D378027C90F9051043EAD9
:100750000C20FFF7EFFD012004E0FFF779FF0120F7
:1007600000E0002008BD0020FCE70020FAE700BF01
:100770001416002008B508F0C1FAFFF711FE08F0C2
:10078000C9FA002008BD000008B5024B1B6803B180
:10079000984708BD5816002008B5024B5B6803B1A6
:1007A000984708BD5816002008B5024B9B6803B156
:1007B000984708BD5816002008B5024BDB6803B106
:1007C000984708BD5816002008B5024B1B6903B1B5
:1007D000984708BD5816002008B5024B5B6903B165
:1007E000984708BD581600207047704708B50AF0B2
:1007F000A1FC08BD7047704708B50AF0F3FB08BDBF
:10080000704770477047704770477047704708B52A
:100810000AF05CFB08BD704770477047704770472F
:10082000704770477047704708B500214FF0FF30A0
:1008300009F05EFB08BD002070470020704770473C
:1008400008B50321802001F071FA03214FF4806084
:1008500001F06CFA0A214FF4C06001F067FA0A2136
:100860004FF4F06001F062FA0A213E2001F05EFAD6
:100870000A212D2001F05AFA0A21512001F056FADE
:10088000002008BD10B5284B5A6E02F4803203F5E3
:1008900080514FF480304866586E4FF000434B66ED
:1008A000224B596C01F001014AF6CD341C641F4BF8
:1008B0005B6B13F0010FFAD11D4B01245C601B4BE5
:1008C0001B6B13F0010FFAD01A4BD3F8083613F054
:1008D000020F03D1164B4FF48024DC6511B1134B8A
:1008E00015491964002803DB144B4FF00041596689
:1008F0001AB9124B4FF480325A6605F06FFD05F0BD
:1009000003FD05F087FD05F029FDFFF799FF05F0D0
:1009100013FD06F041FD00F04BFA02F07BFA02F005
:100920007BFA07F0ABF910BD0080004000400940A1
:100930000060094000C007403254FFFF00A00040A3
:1009400008B502F0A1FA08BD08B500F067F808BDC7
:1009500008B505F0C9FC0AF03FFB08BD08B500F07A
:100960008BF808BD08B500F045F808BD08B507F0DC
:10097000CBFD05F053FD06F0F7F90AF071FD06F026
:100980009BFFFFF7EFFF08BD10B59AB0154C0DF1B6
:10099000480CA646BEE80F00ACE80F009EE80F002A
:1009A0008CE80F002C22002107A81DF03EFF0E4B03
:1009B000079301238DF821305622ADF822200D93A4
:1009C0000DF10C0C04F120030FCB8CE80F00074B4A
:1009D000009307AB12AA6146054806F053F81AB017
:1009E00010BD00BF9CFE01080000014B70160020E6
:1009F0004817002008B5FFF7C7FF08BD08B5024B30
:100A0000186806F059F908BD4817002008B5024BD0
:100A1000186806F051F908BD4817002008B50348CA
:100A200000F04CF9024800F049F908BDCCFE01087D
:100A3000E4FE010803460B4A107828B10A4A1278EE
:100A40009A4202D2002000E00120084A12783AB10E
:100A5000074A127842FA03F313F0010F00D1002085
:100A6000704700BFC7100020C81000207417002076
:100A7000C91000207047704708B5084B01221A7052
:100A8000074B00221A70074B04221A70064B1F22D4
:100A90001A7005F0D1FE054B186008BDC710002084
:100AA00074170020C8100020C91000207017002003
:100AB000FEE7000008B500F013F8064B064A03E015
:100AC00052F8041B43F8041B04498B42F8D3FFF788
:100AD00073FB00BF9C100020784A0208E414002039
:100AE000044B054A9A60D3F8882042F47002C3F898
:100AF0008820704700ED00E000000008014B1868F6
:100B0000704700BFD010002008B5094B1B6F03F0E1
:100B10000703022B04D0032B05D0012B06D0FEE7E0
:100B2000FFF7ECFF03E0034B186800E0024808BD44
:100B300000800040D4100020002D310108B5FFF7DF
:100B4000E3FF054B1B6FC3F303330133B0FBF3F03B
:100B5000024B186008BD00BF00800040CC10002090
:100B60000048704700B4C404014B1868704700BFC8
:100B7000D410002008B5064B1860064B1B6F03F01D
:100B80000703032B00D008BDFFF7D8FFFBE700BF2A
:100B9000D4100020008000400020704700487047BB
:100BA000002D31014FF094439868C0F304400C28A5
:100BB00008D8DFE800F009070707070722181A0717
:100BC0001C1E2000002070474FF094439B6803F0E8
:100BD0004073B3F1807F12D0B3F1007F11D003B125
:100BE00070470948704709487047094870470948E5
:100BF00070470948704709487047094870470948D5
:100C000070470948ECE700BF00093D000024F400EC
:100C1000C0EA210180BA8C010048E801005A620252
:100C2000405DC60080841E0040420F004FF400402B
:100C300070474FF47A707047014B1868704700BFD7
:100C4000D810002000230360704703680B60016028
:100C5000704700E01846036823B18B42FAD10B6855
:100C60000360704770479AB110B584B0144648B11C
:100C70006A4604F053FC20609DF8003053B1012017
:100C800004B010BD6A46002004F048FC2060F3E781
:100C9000012070470020F3E70346064A106803442A
:100CA000054A934202D8034A136070474FF0FF3061
:100CB000704700BFDC1000200000012008B5436829
:100CC0000068984708BD08B583680068984708BD64
:100CD00008B5C3680068984708BD08B5036900688F
:100CE000984708BD10B5044601213A2000F0DCFB0E
:100CF000A378B3FA83F35B0904226178207801F0CA
:100D0000DDFE002010BD000083784BB903784278E7
:100D10000121914003EB43031B01064AD150704768
:100D2000037842780121914003EB43031B01024AFF
:100D3000D150704740E0034040D0034083784BB926
:100D4000037842780121914003EB43031B01064ADB
:100D5000D1507047037842780121914003EB43035F
:100D60001B01024AD150704740D0034040E003408D
:100D7000037842780121914003EB43031B01014AB0
:100D8000D150704740F0034002460378407803EBAF
:100D900043031B01103305495B58C34003F00100B6
:100DA00093780BB980F00100704700BF30C003405A
:100DB00008B5034B1968034B186814F0F7FB08BD1E
:100DC000E4100020E0100020B0F1FF3F01D010B986
:100DD0007047024870470248704700BF21E000F0AA
:100DE00024E000F08908002301E0043001338B4245
:100DF00005D20268B2F1FF3FF7D000207047012012
:100E00007047704738B504461EF01AFDFFF7DCFF47
:100E1000054650B9074B9B680A3303F01F030121B5
:100E200099402046FFF7DEFF08B1284638BD024D45
:100E3000FBE700BF0080E00F0EE000F0F8B50546CC
:100E40000E46940022461EF003FDFFF7BDFF074645
:100E500008B13846F8BD2246314628461DF0AEFCA2
:100E60000028F6D0004FF4E710E000F008B5034684
:100E7000084613F0030F02D111F0030F0AD09200BD
:100E800019461DF0ABFC002008BD53F8041B40F8C8
:100E9000041B013A002AF8D1F5E7000010B582B032
:100EA000044601A801F0E6FE9DF8063023800122E9
:100EB000E2700020A070054B9B680A3303F01F030B
:100EC00002FA03F3636002B010BD00BF0080E00FC0
:100ED00008B501F06FFE08BD08B501F05BFE00200B
:100EE00008BD000008B501F0E3F9014B186008BD2A
:100EF000081E002008B5024B186801F0DDF908BD96
:100F0000081E002008B50A464118013906F038FDD0
:100F100008BD0000024B4FF480321A67704700BFD3
:100F20000090004038B505460C46FFF7EDFD05B1D1
:100F300028600CB10D23237038BD000038B505467C
:100F40000C46164BD3F8203103F00703013B052B69
:100F500020D8DFE803F0030B130F171BFFF7CEFDBC
:100F6000052305B1286004B1237038BDFFF7FCFDEF
:100F70000323F6E7FFF716FE0723F2E7FFF70EFE5F
:100F80000223EEE7FFF7BAFD0623EAE7FFF7ECFDE1
:100F90000423E6E700231846E3E700BF0080004093
:100FA00038B505460C46114BD3F8283103F007033A
:100FB000013B032B17D8DFE803F0020E120AFFF7FC
:100FC0009DFD052305B1286004B1237038BDFFF7EE
:100FD000E9FD0723F6E7FFF7C7FD0323F2E7FFF775
:100FE000DDFD0223EEE700231846EBE7008000401A
:100FF00030B583B005460C4600230193114BD3F85E
:10100000803103F00303022B16D0032B0FD0012BEA
:1010100007D000230DB1019A2A6004B1237003B0F8
:1010200030BD002101A8FFF789FF0F23F2E7FFF78A
:10103000B9FD01900723EDE7FFF7B0FD0190022312
:10104000E8E700BF0080004038B505460C460C4B71
:10105000D3F8903203F00303012B05D0022B07D104
:10106000FFF7A0FD072305E0FFF798FD022301E04D
:101070000023184605B1286004B1237038BD00BFB5
:101080000080004030B583B005460C460023019334
:10109000144BD3F8203203F00703013B032B1ED877
:1010A000DFE803F0020E1318002101A8FFF778FF14
:1010B00011230DB1019A2A6004B1237003B030BD31
:1010C000FFF770FD01900723F3E7FFF7AFFD0190F5
:1010D0000A23EEE7FFF7B0FD01900923E9E70023BB
:1010E000E7E700BF0080004038B505460C460F4BCF
:1010F000D3F8403103F00303022B0ED0032B10D0A2
:10110000012B06D00023184605B1286004B12370D6
:1011100038BDFFF78BFD0A23F6E7FFF78DFD0923A6
:10112000F2E7FFF786FD0B23EEE700BF00800040EB
:1011300030B583B005460C46002301934FF0E02301
:101140001B6913F0040F0ED0FFF7F8FC01900C237D
:101150008DF803300DB1019B2B6014B19DF8033065
:10116000237003B030BD0DF1030101A8FFF7BCFFF0
:10117000F0E7000030B583B005460C46002301932C
:10118000144BD3F8603203F00703013B032B1FD845
:10119000DFE803F0020E1914002101A8FFF7CEFECC
:1011A0000F230DB1019A2A6004B1237003B030BD42
:1011B000002101A8FFF798FF1023F2E7FFF7F2FCE8
:1011C00001900723EDE7FFF7E9FC01900223E8E730
:1011D0000023E6E70080004030B583B005460C46AA
:1011E000002301930C4BD3F8703203F00303012B5F
:1011F00009D0022B0DD114230DB1019A2A6004B13C
:10120000237003B030BD002101A8FFF76DFF10234C
:10121000F2E70023F0E700BF0080004038B5054644
:101220000C46124BD3F8003203F00703013B032BAB
:1012300018D8DFE803F0020A0E12FFF7F7FC0A23C2
:1012400005B1286004B1237038BDFFF7F5FC092310
:10125000F6E7FFF7EEFC0B23F2E7FFF76FFC800ADF
:101260000E23EDE700231846EAE700BF00800040A8
:1012700038B505460C46124BD3F8083203F0070385
:10128000013B032B18D8DFE803F0020A0E12FFF728
:10129000CDFC0A2305B1286004B1237038BDFFF7E7
:1012A000CBFC0923F6E7FFF7C4FC0B23F2E7FFF7BB
:1012B00045FC800A0E23EDE700231846EAE700BF4D
:1012C0000080004038B505460C460F4BD3F840323D
:1012D00003F00303022B0ED0032B10D0012B06D0FA
:1012E0000023184605B1286004B1237038BDFFF70C
:1012F0009DFC0A23F6E7FFF79FFC0923F2E7FFF7BF
:1013000098FC0B23EEE700BF0080004038B505468F
:101310000C460F4BD3F8503203F00303022B12D0CC
:10132000032B08D0012B0AD00023184605B12860F2
:1013300004B1237038BDFFF77CFC0B23F6E7FFF701
:1013400075FC0A23F2E7FFF777FC0923EEE700BFFD
:101350000080004038B505460C460F4BD3F860318D
:1013600003F00303022B0ED0032B10D0012B06D069
:101370000023184605B1286004B1237038BDFFF77B
:1013800055FC0A23F6E7FFF757FC0923F2E7FFF7BE
:1013900050FC0B23EEE700BF0080004038B5054647
:1013A0000C46104BD3F8000100F00300032815D8B9
:1013B000DFE800F002080C10012305B1286004B139
:1013C000237038BDFFF7D0FB0323F6E7FFF734FCAB
:1013D0000923F2E7FFF7E0FB0823EEE700231846B6
:1013E000EBE700BF00800040B0F5207F20D00ED892
:1013F000B0F5007F16D020D810B1B0F5C07F04D171
:101400000F4B186FC0F3033018E0002016E0B0F562
:10141000607F05D10A4BD3F88000C0F301100DE0C6
:1014200000200BE0064BD3F89000C0F3046005E009
:10143000034B186FC0F3802000E00020013070479C
:101440000080004038B505460C46104B4FF4803202
:101450009A660020FFF7C8FF05FB00F00C4BDA6925
:1014600002F4803241F67131D9635B6823F4401392
:101470000849884201D9002C05DD05494B600AB1B5
:101480000022CA6338BD43F48013F6E700900040A1
:1014900000000340005A620208B5FFF761FB00211B
:1014A000FFF7D0FF08BD0000430905D0012B0ED087
:1014B000022B0ED0002200E0002200F01F0051B1EC
:1014C00002F58052012303FA00F010607047034ACE
:1014D000F3E7034AF1E702F50052F3E764800040C6
:1014E0006880004010B582B0002301930093B0F5EE
:1014F000807F00F20781B0F5807F00F27581DFE820
:1015000010F04C01730173017301730173017301D6
:10151000730173017301730173017301730173012B
:10152000730173017301730173017301730173011B
:10153000730173017301730173017301730173010B
:1015400073014C0185014C0185019D019D019D01A7
:101550009D019D018501A2013D01AC0123013D01D9
:1015600085018501850173017301730173017301A5
:1015700073017301AC01850185018501C001B101D1
:1015800085017301730173017301730173017301A9
:1015900073017301730173017301B6019D014C0165
:1015A0004C014C016D013D013D016201BB01560141
:1015B0007C017C0173017301730173017301730179
:1015C000730173017301730173017301730173017B
:1015D000730173017301730173017301730173016B
:1015E000730173017301730173017301730173015B
:1015F000730173017301730173017301730173014B
:10160000730181017301730173017301730173012C
:10161000730173017301730173017301730173012A
:10162000730173017301730173017301730173011A
:10163000730173017301730173017301730173010A
:1016400073017301730173017301730173017301FA
:1016500073017301730173017301730173017301EA
:1016600073017301730173017301730173017301DA
:1016700073017301730173017301730173017301CA
:1016800073017301730173017301730173017301BA
:1016900073017301730173017301730173017301AA
:1016A000730173017301730173017301730173019A
:1016B000730173017301730173017301730173018A
:1016C000730173017301730173017301730173017A
:1016D000730173017301730173017301730173016A
:1016E000730173017301730173017301730173015A
:1016F000730173017301730173017301730173014A
:101700007301A701B0F5E06F00F0AC800CD9B0F523
:10171000286F00F0B1804FD9B0F5306F63D1002150
:1017200001A8FFF791FC5FE0B0F5607F79D010D998
:10173000B0F5B06F00F0878033D9B0F5C06F00F01E
:101740008C80B0F5D06F4FD1002101A8FFF766FD66
:101750004AE0B0F5007F0AD1FFF7D6F904464FF40E
:101760000070FFF741FEB4FBF0F401943CE011D9A6
:10177000B0F5207F4AD0B0F5407F35D1FFF7DEF9D4
:1017800004464FF42070FFF72FFEB4FBF0F464081A
:10179000019429E0B0F5C07F26D1FFF7CFF9019081
:1017A00022E0B0F5806F49D0B0F5A06F1CD10021C8
:1017B00001A8FFF767FC17E0B0F5186F57D007D9FD
:1017C000B0F5206F10D1002101A8FFF7D3FC0BE08A
:1017D000B0F5F06F55D0B0F5106F05D1002101A81C
:1017E000FFF746FD00E002D2019802B010BDB0F54F
:1017F000386F32D0B0F5406FF6D1002101A8FFF765
:10180000CFFBF1E7FFF780F90190EDE7FFF796F9DD
:1018100004464FF42070FFF7E7FDB4FBF0F40194A9
:10182000E2E700216846FFF77DFB009C4FF4607003
:10183000FFF7DAFDB4FBF0F40194D5E7002101A82D
:10184000FFF77CFBD0E7002101A8FFF7D1FBCBE736
:10185000002101A8FFF76CFCC6E7002101A8FFF7F3
:1018600043FCC1E7002101A8FFF72CFDBCE70021E4
:1018700001A8FFF74BFDB7E7002101A8FFF7ACFC7B
:10188000B2E7002101A8FFF765FDADE708B58020AC
:10189000FFF728FE034B984203D8034B4FF48032E6
:1018A0001A6708BD005A620200A0004000B583B06C
:1018B00000238DF80730B0F5807F00F0BE8013D98B
:1018C000B0F5086F00F0C58046D9B0F5286F00F07C
:1018D000D88070D9B0F5306F40F082800DF10701EB
:1018E0000020FFF7B1FB7CE080287AD8242878D349
:1018F00024385C2875D8DFE800F04F4F4F4F4F7405
:101900004674A6587474747474747474747474A67D
:101910007474743AB874747474747474747474747D
:101920007474BE4F7474746D747464C4B27F7F74C5
:101930007474747474747474747474747474747467
:101940007474747474747474747474747474747457
:101950007474747474748500B0F5C06F73D00CD94E
:10196000B0F5E06F00F08180B0F5F06F1AD10DF1A5
:1019700007010020FFF7EEFC33E0B0F5A06F6ED05A
:10198000B0F5B06F05D10DF107010020FFF730FB76
:1019900027E0B0F5806F24D10DF107010020FFF79B
:1019A000CDFA1EE0B0F5D06F1BD10DF1070100207C
:1019B000FFF734FC15E0B0F5186F5CD0B0F5206F80
:1019C00005D10DF107010020FFF7D4FB09E0B0F5C8
:1019D000106F06D10DF107010020FFF749FC00E070
:1019E00004D29DF8070003B05DF804FBB0F5386F32
:1019F00029D0B0F5406FF4D10DF107010020FFF7B9
:101A0000CFFAEEE7224B1B6F03F00703013B032BDA
:101A1000E7D8DFE803F00E02060A05238DF8073049
:101A2000DFE703238DF80730DBE708238DF8073065
:101A3000D7E702238DF80730D3E70DF10701002027
:101A4000FFF776FBCDE70DF107010020FFF74CFB18
:101A5000C7E70DF107010020FFF7A0FCC1E70DF17A
:101A600007010020FFF70EFBBBE70DF10701002087
:101A7000FFF728FCB5E70DF107010020FFF746FC52
:101A8000AFE70DF107010020FFF7A6FBA9E700BFB4
:101A90000080004070B505468020FFF707FF03284F
:101AA00000F0A180584B4FF480125A66574B45F610
:101AB0000E02C3F8802003F580524FF0A0619162BE
:101AC00003F500534FF480329A62504B9C6D14F42E
:101AD0008034FAD12A786B781B0543EA0263EA78EE
:101AE00043EA02432A7943EA02336A7943EA8213DA
:101AF000AA791343454E3361B36903F00043EA7991
:101B000043EA82632A7A43EA02636A7A43EA024337
:101B1000AA7A43EA0223EA7A1343B36100F0C8FBCE
:101B2000B26B82F4006303F440635340B36300F08C
:101B3000C3FB336A23F00F036A7B02B108242343FB
:101B40002C7B43EA84031343304A13626B7B002BE4
:101B500030D1916A2E4B0B40A97B43EA4113E97BBC
:101B600043EA0113A97C43EAC10343F4803393623F
:101B7000264B9A6D274B9343FAD1244A02F58051A4
:101B80004FF080738B62136923F47003A87843EAE3
:101B9000005313614FF000438B612B7C1BB91E4B2C
:101BA0004FF080729A626B7CBBB91B4B4FF4803252
:101BB0009A6212E0022B17D0144A916A144B0B4020
:101BC000A97B43EA4113297C43EA0163A97C43EAE8
:101BD000C103697C43EA01439362EB7C1BB10B4B6D
:101BE0000E4AC3F8802070BD084C00232361A36116
:101BF00000F05EFB626B82F4085303F47F435340B2
:101C0000636300F059FBD7E7009000400040004AB2
:101C1000C7FFFEFE030001000060004AF1A7FFFFBE
:101C2000014B93F9000070470411002008B500290A
:101C300003DD0121FFF706FC08BD0021FFF702FCD0
:101C4000FAE70000B0F5207F4AD02FD8B0F5007F2A
:101C50003BD04ED810B1B0F5C07F26D110B54C1E88
:101C6000FFF71AFC00F048F8FFF754F9214B196F01
:101C700021F4704141EA04311967FEF75FFF4FF02C
:101C80004023D3F8843013F0100FF8D14FF04023E5
:101C9000D3F88410C1F38111C1F10201FFF7C6FF2F
:101CA00000F032F8FFF7F2FD10BD7047B0F5607F2D
:101CB0000AD101390F4AD2F8803023F0300343EAC9
:101CC0000111C2F88010704770470139094AD2F8F3
:101CD000903023F0F85343EA0161C2F89010704746
:101CE0000139044A136F23F4806343EA81211167A9
:101CF000704770470080004008B502214FF4207003
:101D0000FFF7A0FF08BD000008B54FF4C070FFF753
:101D1000E9FB054B984205D902214FF42070FFF7EB
:101D200091FF08BD0121F8E780F0FA0270B50C467A
:101D3000B0F5807F00F094811FD9B0F5086F00F0F6
:101D4000108240F28380B0F5286F00F0998240F253
:101D5000D180B0F5306F40F0F880022900F0A28207
:101D6000072940F0A1820221874AD2F8903223F05D
:101D700003030B43C2F89032E8E0802800F2E680CB
:101D80002428C0F0E38024385C2800F2DF80DFE8FC
:101D900010F099009900990099009900DD008300E6
:101DA000DD00A801A500DD00DD00DD00DD00DD00B7
:101DB000DD00DD00DD00DD00DD00DD00A801DD006F
:101DC000DD00DD0069002D02DD00DD00DD00DD004D
:101DD000DD00DD00DD00DD00DD00DD00DD00DD001B
:101DE000DD0043029900DD00DD00DD00D000DD00F4
:101DF000DD00B8007702FE01E500E500DD00DD0052
:101E0000DD00DD00DD00DD00DD00DD00DD00DD00EA
:101E1000DD00DD00DD00DD00DD00DD00DD00DD00DA
:101E2000DD00DD00DD00DD00DD00DD00DD00DD00CA
:101E3000DD00DD00DD00DD00DD00DD00DD00DD00BA
:101E4000DD00DD00DD00DD00DD00F100B0F5C06F7C
:101E500000F0478119D9B0F5E06F00F0C781B0F507
:101E6000F06F38D10A2C00F054810B2C00F0538114
:101E7000092C00F04C810021434AD2F8603123F054
:101E800003030B43C2F8603160E0B0F5A06F00F0CF
:101E90007E81B0F5B06F12D1072C00F0C7800F2CF7
:101EA00000F0C680022C00F0BF800021364AD2F834
:101EB000803123F003030B43C2F8803146E0B0F5D4
:101EC000806F43D1023C052C00F2B480DFE804F0BF
:101ED000B8B4BCBEBAB6B0F5D06F37D1093C052C4A
:101EE00000F21B81DFE814F023012901250119010B
:101EF00019012701B0F5186F00F08E81B0F5206F41
:101F000014D1023C0E2C00F29D81DFE814F0B701E1
:101F10009B019B019B019B01B1019B019B019B01CB
:101F20009B019B019B019B01B301B501B0F5106FB3
:101F30000CD1093C052C00F20281DFE814F00A0103
:101F400010010C01000100010E0100D270BDB0F5BE
:101F5000386F00F0C680B0F5406FF7D1023C052C19
:101F600000F23281DFE814F03C013E013001400113
:101F700030013A018B1E062B08D8DFE803F04F3DF5
:101F8000075207074C0000BF0080004000252E4686
:101F90000121022000F002FAFFF77EFAFFF7ACFE03
:101FA000FEF7B8FFAC4A136F23F007033343136700
:101FB000FEF7C4FD4FF04023D3F8843013F0100F28
:101FC000F8D14FF04023D3F88410C1F38111C1F14F
:101FD0000201FFF72BFE0121002000F029FAFFF794
:101FE00093FEFFF753FC002DB0D1032CAED19B4BD9
:101FF0004FF480329A62A9E7994B4FF480125A66E7
:10200000984B9D6AC5F3006503F580534FF4803209
:102010009A620326BCE700250426B9E700250126BD
:10202000B6E700250226B3E702213FE703213DE79B
:1020300001213BE700210AE0022108E0042106E03B
:10204000032104E0052102E0062100E00121824A8B
:10205000D2F8203123F007030B43C2F8203175E793
:102060000C2924D01FD8A1F10904E4B2022C3FF6B8
:102070006DAF794B596E03F580534FF480325A6639
:10208000794A536A43F00103536211F4803F03D14C
:10209000764B4FF480325A664FF0E022136923F0FA
:1020A0000403136152E710297FF450AFE1E76A4B54
:1020B000596E03F580534FF480325A666A4A536A68
:1020C00023F00103536211F4803F03D1674B4FF4B7
:1020D00080325A664FF0E022136943F00403136123
:1020E00034E70A2C0FD00B2C0FD0092C09D000217B
:1020F000594AD2F8403123F003030B43C2F8403170
:1021000024E70221F4E70121F2E70321F0E70221AD
:10211000B2E60121B0E60321AEE600214E4AD2F834
:10212000003223F007030B43C2F800320EE702210E
:10213000F4E70321F2E70421F0E70121EEE70021B3
:10214000454AD2F8083223F007030B43C2F808329D
:10215000FCE60221F4E70321F2E70421F0E7012184
:10216000EEE708290FD009290FD0032909D0002153
:10217000394AD2F8003123F003030B43C2F800318F
:10218000E4E60121F4E70321F2E70221F0E7073C4E
:102190000A2C07D8DFE804F010061412060606061B
:1021A0000606160000212C4AD2F8203223F007033D
:1021B0000B43C2F82032C9E60221F4E70321F2E71B
:1021C0000421F0E70121EEE70021234AD2F828316B
:1021D00023F007030B43C2F82831B7E60421F4E7E4
:1021E0000321F2E70221F0E70121EEE70A2C0FD0EC
:1021F0000B2C0FD0092C09D00021174AD2F84032FD
:1022000023F003030B43C2F840329FE60221F4E7B8
:102210000121F2E70321F0E70A2C0FD00B2C0FD09D
:10222000092C09D000210C4AD2F8503223F00303C4
:102230000B43C2F8503289E60221F4E70121F2E7AC
:102240000321F0E70021044AD2F8603223F00703AB
:102250000B43C2F8603279E6008000400060004A1B
:10226000009000400040004A00C0074000A000402D
:102270000421E8E70121E6E70221E4E70321E2E7A0
:10228000102C0BD0142C0BD10221084AD2F870323A
:1022900023F003030B43C2F8703257E60121F4E741
:1022A0000021F2E701215FE500215DE500800040AB
:1022B000EFF3108072B6704700B962B670473023F2
:1022C00083F311887047002383F311887047EFF37D
:1022D0001180302383F31188704780F31188704791
:1022E000034B5868C0F30800003818BF012070473E
:1022F00000ED00E0EFF3108313F0010F05D1EFF3D1
:1023000011832F2B03D80020704701207047012034
:1023100070474FF04022536F23F44073417843EAF3
:1023200001235367704770477047000010B504469B
:10233000094A136943F00403136105F031FFFFF705
:10234000F2FF30BFFFF7F0FF05F040FF04B110BD12
:10235000FEF7F4FBFBE700BF00ED00E010B504461C
:10236000074A136943F00403136105F019FF30BFF6
:1023700005F02CFF04B110BDFEF7E0FBFBE700BF4A
:1023800000ED00E0704770474FF04022D36E23F01D
:10239000300301790B43D36670477047F8B50446A4
:1023A0004FF04023D3F8843013F0100FF8D14FF0E2
:1023B0004023D3F88430C3F381139C4231D0FEF71D
:1023C000A3FB0646012C12D0FFF772FF05464FF023
:1023D000402707F500534FF000725A662046FFF77A
:1023E000DCFF621E4FF4806393403B6707E00121EE
:1023F000FFF71CFCE8E74FF04023D3F884304FF0A0
:1024000040235B6E13F0007F06D14FF04023D3F8DA
:10241000843013F0200FEED02846FFF74DFF022C3A
:1024200000D0F8BD00213046FFF700FCF9E70000BE
:1024300010B50C46034650B1094A127812B1094A48
:10244000934208D921460220FFF7A8FF10BDFEF7EE
:102450005BFB0346F0E721460120FFF79FFFF5E70E
:10246000BC1E0020005A620208B50278034B1A70A5
:1024700001210020FFF7DCFF08BD00BFBC1E0020CB
:102480001B4B4FF000425A6603F50B235A6C02F0C7
:1024900001024AF6CD31196490B9164B5B6B13F00B
:1024A000010FFAD1134B5B6813F0010F1BD0124BD5
:1024B000012159600F4B1B6B13F0010FFAD012E092
:1024C0000C4B1B6B13F0080FFAD10A4B03F50051AC
:1024D0002020886203F5805301215960054B9B6AD7
:1024E00013F0200FFAD012B1024B044A1A6470475D
:1024F0000090004000400940006009403254FFFF56
:1025000010B5194B4FF000425A6603F50B235C6C73
:1025100004F001044AF6CD321A6443785B0043F0BC
:1025200001034FF04022D363104B5B6B13F00B0F92
:10253000FAD10E4A536823F4F873817843EA011301
:102540005360C178437943EA012393600179837929
:1025500043EA012313610078FFF792FF14B1034BA4
:10256000034A1A64012010BD009000400040094059
:102570003254FFFF10B40F2800D90F20124B5C6EAD
:1025800003F580534FF000425A6603F50B235A6C53
:1025900002F001024AF6CD3119640C4B5B6B13F06B
:1025A000800FFAD109490B6A23F00F031843086220
:1025B0000AB1074A0A64002C03DB064B4FF00042C5
:1025C0005A665DF8044B70470080004000400940A7
:1025D0003254FFFF00A0004010B4134B5C6E03F5B3
:1025E00080534FF000425A6603F50B235A6C02F0F9
:1025F00001024AF6CD3119640C4B5B6B13F0800F6E
:10260000FAD10A490B6A23F4F85343EA002008621E
:102610000AB1074A0A64002C03DB064B4FF0004264
:102620005A665DF8044B7047008000400040094046
:102630003254FFFF00A00040084B98420AD0084BDC
:10264000984209D003F58043984201D0002070479A
:102650005820704756207047572070470000014BA4
:1026600000000A40436813F0010F19D0836813F08B
:10267000010F03D0036913F0010F09D00A2383630C
:10268000436D13F0500FFBD1836C13F0030FFBD19C
:1026900000F5005301225A60436813F0020FFBD18A
:1026A000042307E000F5805304221A6100F500536B
:1026B0001A610B46591E002BF4D12023036100231D
:1026C000C360836041F20202426183614FF4A02241
:1026D0004262C36103628362C3624363036500F5C0
:1026E00000520249D1640363704700BFFF3F0D03EE
:1026F0000A46F1B100F580530121596002F00F0143
:10270000436DC3F30B03002BFAD18163436D13F0C8
:102710007803FBD112F0010F00D0012312F0040F57
:1027200001D043F00203826C02F003029A42FAD114
:102730007047436813F0010FFAD0836813F0010F5C
:1027400003D0036913F0010F09D00A238363436D9B
:1027500013F0500FFBD1836C13F0030FFBD100F586
:10276000005301225A60436813F0020FFBD17047F7
:10277000836C13F0800FFBD0C06BC0B27047836CCA
:1027800013F0400FFBD041647047000038B5044699
:1027900015460846E1B1A36813F0010F4ED06268F8
:1027A000B0FBF5F0013812F001023BD0636D13F07D
:1027B000280FFBD1A36C13F0030F0FD1A36C13F000
:1027C000010F2BD1A36C13F0020F29D1002106E0D9
:1027D0002046FFF731FFFEF785FEDCE70521636841
:1027E00013F0010F1FD0A36813F0010F03D023696A
:1027F00013F0010F09D00A23A363636D13F0500F88
:10280000FBD1A36C13F0030FFBD104F5005301259A
:102810005D60636813F0020FFBD104E00921DEE77D
:102820000621DCE70021236923F07F4343EA0060AF
:1028300020610AB32046FFF75BFF1DE06368A368D1
:1028400003F0E003402B1DD017D9602B1ED0802B46
:1028500012D10123400105FB03F3B0FBF3F0203854
:102860000B4B03EAC000636D13F0010FFBD1206333
:10287000636D13F0010FFBD138BD2BB1202BFBD1C1
:102880000823E7E70623E5E71023E3E70423E1E76E
:10289000F8FF7F0070B504460D461646436823B125
:1028A000636DC3F30B03002BFAD12046FFF7DAFE6A
:1028B000636923F44C5323F00F036A7B1343EA89C3
:1028C00013432A8A13436361A36823F0804323F0F0
:1028D000E2032A7B13432A7E13436A691343A360EE
:1028E000AB681BB9A36843F00043A360EA69002A00
:1028F00074D0A368127A43EA8253A360A368EA699A
:10290000927A43EA4243A360A368EA69928802F498
:10291000C0421343A360A368EA69527843EA820382
:10292000A360A368EA69527B43EAC203A360A36879
:10293000EA69927B43EA0213A360A368EA6992788A
:1029400043EA8223A360EA699179D3795B0243EA7F
:102950008123E360EB691B78012B01D0032B03D1AA
:10296000E36843F00403E360EB691B78023BDBB2EE
:10297000012B4DD9474B9C4267D0474B9C4266D0B8
:1029800003F580439C425ED04FF0FF3303F5937311
:102990005B0103F1804303F5703302225A60EB6957
:1029A0005A7A04F580539A62EB695B7A1BB1E3684B
:1029B00043F40063E360EB69DB7A7BB1E36843F4E3
:1029C0000043E360334B9C4243D0EB691B7B03F035
:1029D0000F03324A1367324B9C4241D03EB196F806
:1029E0002030002B42D004F5805301221A620521C9
:1029F0002046FFF77DFEAA68002A46D129782046A6
:102A0000FFF776FEA36CDB4313F4405FFAD170BD91
:102A1000204B9C4213D0204B9C4212D003F58043A4
:102A20009C420AD04FF0FF33A6335B0103F1804391
:102A300003F5703302225A60B1E70223F4E7002362
:102A4000F2E70123F0E70223A0E700239EE701233A
:102A50009CE7EB691B7B03F00F03104A5366B4E756
:102A6000EB691B7B03F00F03D367B7E7E36923F040
:102A7000090396F82220134396F82120134343F0CC
:102A8000010304F58052D361B1E769682046FFF77E
:102A90007DFEB3E70000014B00000A4000900340B8
:102AA00000400A4008B500231A46FFF7F3FE08BDB0
:102AB00008B500231A46FFF7EDFE08BD2DE9F84FD3
:102AC00004460E461F4690463AB183B301228A401F
:102AD00000EB400109012C4B5A50072E2FD804EB74
:102AE00044094FEA091909F10409DFF8A4A0B30069
:102AF0000F2505FA03FB08FA03F5FFF7D9FB59F890
:102B00000A305D4005EA0B055D4049F80A50FFF7C1
:102B1000D3FBB8F1000F08D16FB3012101FA06F61B
:102B200004EB44042401184B1E51BDE8F88F012228
:102B30008A4000EB40010901144B5A50CDE704EBE9
:102B400044052D010C35DFF84890A6F108039B00E1
:102B50000F2202FA03FA08FA03FBFFF7A9FB55F864
:102B600009308BEA030202EA0A025A4045F80920BA
:102B7000FFF7A2FBCDE7012101FA06F604EB4404BE
:102B80002401024B1E51D0E740D0034040E00340F7
:102B900030C00340064B4FF480329A6603F51C3375
:102BA00041F67132DA6303F500530122DA607047AF
:102BB00000900040074B41F67132DA6303F5005292
:102BC0000121D1600022DA63A3F518334FF480327B
:102BD0009A66704700000340024B4FF400321A67B8
:102BE000704700BF005000404FF04023D3F89400DE
:102BF0007047436813B9416070475B685A68012A9F
:102C0000FBD159607047836813B9816070475B6876
:102C10005A68012AFBD159607047C369032B05D854
:102C20009A1C00EB820251600133C3617047C26994
:102C3000042A1DD84FF098431B6C13F4801FF9D061
:102C4000043292004FF098431A6502681A60426895
:102C50001A6082681A600023C2699A4208D99A1CD5
:102C600000EB820251684FF0984211600133F3E7A4
:102C700070470000074B4FF480325A6603F5E62395
:102C80009B69C3F38512827003F03F0242701B0BF5
:102C90000370704700900040436813F0010F00D1AB
:102CA000704710B50446FFF712FB636A13F0010F7B
:102CB00001D10123E360FFF710FB10BD30B586465C
:102CC000049C94460AB94FF0040C9C4538BF9C46BE
:102CD000DEF80820CCF1000010400CF1FF35154063
:102CE00000D0654628440144C3F1000C01EA0C0CF5
:102CF0005D1E294000D019466144DEF804309B1A5D
:102D000001338A1A93420BD3CEF8081000232370A4
:102D10000B4B63604FF4E563A3600A4BE36030BD87
:102D2000039909B1D21A0A6016232370044B636019
:102D300040F22273A360034BE3600020EFE700BF83
:102D400020FF010864FF01082DE9F04182B00A9DCF
:102D50004AB908232B701F4B6B604FF4D963AB60EB
:102D60001D4BEB60FEE70E461C46174613B1013BB8
:102D700023420AD04CB108232B70164B6B6040F2F3
:102D8000CB63AB60144BEB60FEE7FFF7A0FA804625
:102D90000195099B0093089B224639463046FFF770
:102DA0008DFF04462B7833B94046FFF796FA20464C
:102DB00002B0BDE8F0814046FFF78FFA16232B7072
:102DC000044B6B6040F2D763AB60034BEB600024B5
:102DD000EDE700BF20FF01087CFF0108F0B585B0DA
:102DE00005460C4616461F466BB17CB10297002380
:102DF0000193012300930423324621462846FFF71E
:102E0000A3FF05B0F0BD00F006F8EEE7004CEDE7DB
:102E1000081100207047FEE700B585B00C4B1B7809
:102E2000012B09D0684600F093FF9DF8003063B98C
:102E3000002005B05DF804FBFFF752FA10B16FF007
:102E40000500F6E74FF0FF30F3E74FF0FF30F0E713
:102E50000C450020094B1B78012B01D00020704746
:102E6000074B1B78012B04D1064B1B781BB10320A9
:102E70007047012070470220704700BFFC420020CD
:102E80000C4500200D45002000B585B0FFF728FA5D
:102E900058B9094B1B78012B0AD0684600F088FE10
:102EA0004FF0FF3005B05DF804FB6FF00500F9E767
:102EB0004FF0FF30F6E700BF0C45002000B585B0AD
:102EC000FFF70EFA70B90A4B1B781BB1012005B051
:102ED0005DF804FB684600F0C9FD9DF8003023B999
:102EE0000020F4E76FF00500F1E74FF0FF30EEE768
:102EF0000D45002010B584B00446FFF7F1F978B90C
:102F0000002C08DD684600F0B1FD01209DF800307E
:102F10004BB904B010BD684600F0F2FD0020F5E7A3
:102F20006FF00500F5E74FF0FF30F2E700B585B030
:102F3000684602F083FD05B05DF804FB10B584B06F
:102F40000446FFF7CDF950B96A460021204602F049
:102F500087FD9DF800302BB9002004B010BD6FF044
:102F60000500FAE74FF0FF30F7E7000030B585B015
:102F70000446FFF7B5F9002835D1B4B1A568F5B11D
:102F8000E368132B31D915F0030F30D100232B74D4
:102F90002168E9B16B460022284601F0AFF99DF89F
:102FA0000030BBB9284605B030BD14201BF0F6FB3D
:102FB00005460028F6D0012303740E49EAE71420E1
:102FC0001BF0ECFB05460028ECD001230374DFE77F
:102FD0000849DFE72B7C012B01D00025E2E72846DA
:102FE0001BF0E4FBF9E70025DCE70025DAE7002524
:102FF000D8E700BF94FF010870B584B0A8B30D46B0
:103000000646002934DBFFF762F9F4682C43736845
:1030100005E05A6F02EA0401A24312D09B699BB1FA
:10302000B3F87C2012F4807FF8D002F00F02042A5B
:10303000EFD0082AF2D15A6F2240EFD024EA0204DE
:10304000ECE724EA0104E9E7FFF747F96B460022C1
:103050002946304601F0A2FB9DF8003013B9204606
:1030600004B070BD6FF00204F9E76FF00304F6E7F7
:103070006FF00304F3E7002853D0F0B589B00E4693
:1030800015461C46074600294EDBB3F1FF3F2ED004
:103090009BBB4FF4004315F0010F33D043F0040302
:1030A00015F0020F01D143F48073FD6804AA019268
:1030B00003AA009222463146384601F06FF92843B0
:1030C0009DF8103033B3312B37D81D2B38D31D3B2F
:1030D000142B1DD8DFE803F0201C1C1C37191C1C06
:1030E0001C1C1C1C1C1C1C1C371C1C1C3700FFF748
:1030F000F7F8E0B900231C46CDE7FFF7F1F8C8B9AF
:103100000023C8E743F00803CAE76FF0010001E0BD
:103110004FF0FF3009B0F0BD0028FBD16FF0020086
:10312000F8E76FF0030070476FF00300F2E76FF00D
:103130000300EFE76FF00300ECE74FF0FF30E9E743
:103140004FF0FF30E6E76FF00200E3E730B585B0FF
:103150000446FFF7C5F800283CD1D4B1A5680DB3EB
:10316000E3681B2B38D915F0030F37D100232B76DA
:103170002168F9B16A46284601F0FEFB9DF800304F
:10318000D3B914B3636813F0010F1ED001236B761B
:103190001DE01C201BF002FB0546C0B10123037695
:1031A0000F49E7E71C201BF0F9FA054678B1012327
:1031B0000376DDE70A49DDE72B7E012B01D00025F0
:1031C00005E028461BF0F2FAF9E700236B76284663
:1031D00005B030BD0025FAE70025F8E70025F6E741
:1031E000A0FF010830B589B005460C46FFF778F816
:1031F00010BB25B3B4B94FF40042B4F1FF3F13D074
:1032000004AB009303AB2146284601F005FC9DF872
:103210001030222B16D0232B0AD03BB16FF00200C6
:1032200009B030BD0022E8E70024E9E70020F7E715
:103230006B7E53B10020F3E76FF00500F0E76FF00D
:103240000300EDE76FF00100EAE76FF00200E7E747
:1032500010B584B00446FFF743F868B97CB16A46FC
:103260000021204601F0B4FD9DF8003053B1232B1E
:103270000AD1002004B010BD6FF00500FAE76FF02E
:103280000300F7E70020F5E76FF00200F2E710B562
:1032900084B00446FFF724F898B9ACB16A4601211E
:1032A000204601F0EBFC9DF8003083B9237E012B12
:1032B00002D0002004B010BD20461BF077FA002099
:1032C000F8E76FF00500F5E76FF00300F2E76FF045
:1032D0000200EFE770B584B005460E461446FEF7CF
:1032E000FFFF002837D1002D37D0B4B1A568F5B164
:1032F000E368172B33D915F0030F32D100232B7459
:103300002168E9B16B463246284601F0B3FE9DF8CC
:103310000030BBB9284604B070BD18201BF03EFA3F
:1033200005460028F6D0012303740F49EAE7182068
:103330001BF034FA05460028ECD001230374DFE7C4
:103340000949DFE72B7C012B01D00025E2E7284665
:103350001BF02CFAF9E70025DCE70025DAE7002569
:10336000D8E70025D6E700BFA8FF010830B330B585
:1033700089B00C46054681B904AB009303AB4FF40A
:103380000042002101F0B6FE9DF81030E3B1222B7F
:103390001CD16FF0010009B030BDFEF7A1FF80B96C
:1033A000B4F1FF3F08D004AB009303AB00222146E9
:1033B000284601F09FFEE7E70024F4E76FF00300E2
:1033C00070476FF00300E6E70020E4E76FF00200CB
:1033D000E1E760B100B585B06A46002101F072FFF7
:1033E0009DF8003033B9002005B05DF804FB6FF0A4
:1033F000030070476FF00200F6E710B538B10446DD
:10340000FEF756FFE468FEF757FF204610BD002484
:10341000FBE710B584B00446FEF762FF98B9ACB183
:103420006A460121204601F0EFFF9DF8003083B984
:10343000237C012B02D0002004B010BD20461BF0DD
:10344000B5F90020F8E76FF00500F5E76FF003002D
:10345000F2E76FF00200EFE72DE9F04F8FB006467C
:103460000F461446FEF73CFF002840F0F980002E7E
:1034700000F0F880002C34D0A568002D4DD0E36812
:10348000C32B40F2F38015F0030F40F0F1800023CE
:1034900085F8BC30D4F814B0BBF1000F47D02369D5
:1034A000002B5AD0002B6BD0D4F8109019F0070FD6
:1034B00066D1002385F8BD30D4F80080B8F1000F44
:1034C00068D0A369002B7AD0B3F1FF3F00F0A18050
:1034D000372B62DC5FFA83FACAF1370A5FFA8AFA9D
:1034E0006FE0C4201BF05AF90546002800F08D80DB
:1034F000012380F8BC304FF480601BF04FF9814607
:10350000002800F0B180012385F8BD304FF01F0A7C
:10351000DFF864814FF4806B53E0C4201BF03EF968
:103520000546002871D0012380F8BC30B2E74FF483
:1035300080601BF033F9814628B1012385F8BD3046
:103540004FF4806BB8E795F8BC30012B01D04D46A5
:103550005BE028461BF02AF9F9E758461BF01EF9F4
:10356000814618B1012385F8BD30A5E795F8BC3038
:10357000012B01D04D4648E028461BF017F9F9E72A
:1035800095F8BC30012B01D000253EE028461BF009
:103590000DF9F9E7DFF8E08093E795F8BD30012BEE
:1035A00005D095F8BC30012B05D000252DE048460C
:1035B0001BF0FCF8F5E728461BF0F8F8F5E74FF0AC
:1035C0001F0A0AAB00222B4905F1940000F096FE79
:1035D0009DF8283003BB2BF00704A4080AAB08931E
:1035E0000723079300230693059304930394029300
:1035F000CDF80490CDF800A03B463246414628461F
:1036000001F0E6FF9DF82830C3B928460FB0BDE8A9
:10361000F08F4FF0400AD4E795F8BD30012B05D06C
:1036200095F8BC30012B05D00025EEE748461BF08D
:10363000BDF8F5E728461BF0B9F8F5E795F8BD3079
:10364000012B05D095F8BC30012B05D00025DCE717
:1036500048461BF0ABF8F5E728461BF0A7F8F5E75E
:103660000025D2E70025D0E70546CEE70025CCE7C8
:103670000025CAE7C0FF0108B4FF0108044B1B780E
:10368000012B01D000207047024B1868704700BF23
:103690000C450020104500202DE9F04184B007467C
:1036A0000C461646FEF71CFE002840F0DC80002F7A
:1036B00000F0DB80002C00F0DA80033424F00305F6
:1036C0003EB3B468002C3ED0F3683B2B40F2D1806F
:1036D00014F0030F40F0CF80002384F82430706989
:1036E000002839D0D6F81080B8F1000F6AD0B8F1B0
:1036F000000F00F0888005FB07F39842C0F083803C
:10370000336913F0030F7ED12362002384F8253040
:103710002CE03C201BF042F80446002844D0012352
:1037200080F8243005FB07F01BF038F806462062CD
:1037300020B1012384F82530504E1AE020461BF0BA
:1037400035F8344630E03C201BF028F8044658B3E6
:10375000012380F82430C2E705FB07F01BF01EF8B8
:103760008046206220B3012384F825303668002E7D
:1037700053D0A762E562002323636363A3636B46B0
:103780003A463146204601F075FC9DF80030002B8A
:1037900045D16B460022314604F1100001F06AFC6D
:1037A0009DF80030002B4CD1204604B0BDE8F081DC
:1037B00094F82430012B01D04446F5E720461AF056
:1037C000F5FFF9E705FB07F3984208D31AF0E6FF87
:1037D0008046206268B1012384F82530C6E794F85A
:1037E0002430012B01D04446DEE720461AF0DEFFEC
:1037F000F9E794F82430012B01D04446D4E7204661
:103800001AF0D4FFF9E794F82430012B01D00024FA
:10381000CAE720461AF0CAFFF9E7184EA9E794F85C
:103820002530012B05D094F82430012B05D000243D
:10383000BAE7206A1AF0BAFFF5E720461AF0B6FF99
:10384000F5E794F82530012B05D094F82430012BAE
:1038500005D00024A8E7206A1AF0A8FFF5E7204663
:103860001AF0A4FFF5E700249EE700249CE700245B
:103870009AE7002498E7002496E700BFCCFF0108F0
:10388000002845D0F0B589B00E461D46044683B9E0
:1038900003AB009307AB4FF40042002101F02AFC78
:1038A0009DF80C308BB1222B38D16FF0010009B09C
:1038B000F0BDFEF715FD70BB03AB009307AB002214
:1038C0002946204601F016FCEAE7FEF700FD054612
:1038D000676BE26A7B1CA16AB3FBF1F001FB10335A
:1038E0006363206A314602FB07001AF077FF236BFF
:1038F000013323632846FEF7F0FC03AA002104F1FC
:10390000100001F0DFFC9DF80C3053B90020CEE729
:103910006FF0030070476FF00300C8E76FF002001C
:10392000C5E76FF00200C2E700284AD0F0B589B0C1
:103930000F4616461D4604468BB903AB009307ABF2
:103940004FF400420021103001F0D4FB9DF80C3000
:1039500093B1222B3BD16FF0010009B0F0BDFEF70F
:10396000BFFC88BB03AB009307AB0022294604F1E0
:10397000100001F0BFFBE9E7FEF7A9FC0546A06BCC
:10398000E26A431CA16AB3FBF1FC01FB1C33A36395
:10399000216A02FB001138461AF020FF236B013B1D
:1039A00023630EB1002333702846FEF796FC03AA6A
:1039B0000021204601F086FC9DF80C3053B9002010
:1039C000CBE76FF0030070476FF00300C5E76FF0BF
:1039D0000200C2E76FF00200BFE770471D4B1B7883
:1039E000012B00D0FEE71C4B1B7803B1704770B56C
:1039F000FEF76DFC0446194D2E7801F0F7FA287099
:103A000040281FD0164B53F83020164B1A60402E1A
:103A100011D0144B1A68144B1B689A420ED00F4BEE
:103A20001B78402B12D002F01AFA2046FEF755FC04
:103A3000BFF36F8F70BD00E000BFEAE72046FEF7DE
:103A40004CFCF7E7074B00221A60E8E707F033FB6E
:103A5000E9E700BF0C4500200D4500200943002088
:103A60000C430020144500201045002010B50446EA
:103A700060B1FEF735FC60B1202323701C4B6360FE
:103A800040F22133A3601B4BE360FEE7FFF7C3F96D
:103A9000EFE7194B1B78012B09D002232370144B3D
:103AA000636040F22533A360124BE36010BD134BFB
:103AB0001B78F92B09D91E2323700D4B636040F24C
:103AC0002A33A3600B4BE360F0E7FEF700FC0B4AE0
:103AD000137801331370FEF700FC00232370044BAE
:103AE000636040F23533A360024BE360DEE700BF62
:103AF000DCFF01085C0002080C4500200D45002099
:103B000010B5044660B1FEF7EBFB60B120232370D3
:103B1000234B636040F24D33A360224BE360FEE72A
:103B2000FFF779F9EFE7204B1B78012B09D002232F
:103B300023701B4B636040F25133A360194BE36069
:103B400010BD1A4B1B784BB91F232370144B6360B5
:103B500040F25633A360134BE360F1E7FEF7B7FB87
:103B6000124A1378013BDBB213706BB9FEF7B5FB59
:103B7000FFF734FF00232370094B63604FF45A733F
:103B8000A360084BE360DBE7FEF7A7FB2D23237060
:103B9000034B636040F25E33A360024BE360CFE708
:103BA000DCFF01084C0002080C4500200D450020F8
:103BB00010B5044668B1264B1B78012B0CD013239B
:103BC0002370244B636040F2FE33A360224BE3601A
:103BD000FEE7FFF720F9EEE7204B1B884BB90923DE
:103BE00023701C4B636040F20943A3601A4BE360EF
:103BF000FEE71B4B1B784BB11F232370154B6360F3
:103C000040F20C43A360144BE360FEE7FEF772FB47
:103C100048B11F2323700F4B636040F20F43A36032
:103C20000D4BE360FEE701F0E1F90E4A10700E4A19
:103C300010700E4A52F830300D4A13600D4A13606E
:103C4000074B01221A7002F0C3F8FFF7E4F810BD29
:103C5000FC420020DCFF0108440002081845002057
:103C60000C45002009430020084300200C4300209D
:103C7000144500201045002008B501F0B7F9402890
:103C800001D0002008BD0120FCE700230360436051
:103C9000704791F827C0036833B153B193F82720D8
:103CA000624506D89B69F8E78B61CB610160416092
:103CB00070473BB1DA695AB18B61DA69CA619161C7
:103CC000D96170478B614368CB61996141607047EE
:103CD0008B61CA61D96101607047036A63B15A6838
:103CE000926952B1C2695AB1816971B19161CA6177
:103CF00000238361C361036270475A609A60F7E7EB
:103D000082690021D1615A60F2E791619A60EFE720
:103D100070B5056A6B689B6943B104462E1DFFF7B9
:103D2000DCFF256221463046FFF7B3FF70BD00007F
:103D3000002307E0054A002142F8331002EBC302DA
:103D4000516001333F2BF5D9704700BF0C43002071
:103D500038B50446002848D0614B5A689AB11B68B0
:103D6000002B45D05F4A13605E4B1A685E4B1A60A9
:103D70005B4B5B685D4A13609B005D4A13605D4965
:103D80000A6813440B60564B1A89DAB102EB4202FF
:103D9000234692005249096B5748FFF71FF8574BCB
:103DA0001860237803BB564B18604D4B1B89554A4E
:103DB000138003EB43039B00534A13604D490A6889
:103DC00013440B60464B5A6B504B1A6001F072FF64
:103DD00004F09AFBC8B1012323704D4B63604FF48C
:103DE000DA73A3604B4BE36038BDFFF714F8B3E719
:103DF000234692003A49096B4748FEF7EFFF394BDB
:103E000018602378002BAFD0EEE704F001FD434BA0
:103E100018603E4B1D68A84209D2092323703C4B11
:103E200063604FF4DD73A3603A4BE360FEE7A842A2
:103E300023D002460023002001211AF0E7FA05FBF7
:103E400000F0374A1060B5F57A7F1AD8354B00225A
:103E50001A600023344A1370344A1370344A1360D2
:103E6000344A1360344A1370344A13701F4B1B6872
:103E7000D3B11D4A1268AAB916E0294B00221A6074
:103E8000E1E72A460023002001211AF0BFFA4FF48F
:103E90007A7300FB03F3234A1360DAE7013B002146
:103EA00042F8041B002BF9D1254B00221A7001F0B7
:103EB00091F8FFF73DFF134B1B882BB1204600F014
:103EC00023FD2378002B8FD1204601F057FB237868
:103ED000002B89D1FFF781FD1A4B01221A7083E76D
:103EE0001C110020C4420020C8420020CC42002007
:103EF000D0420020C042002030000208D4420020FE
:103F0000D8420020DC420020E0420020E4420020B1
:103F1000DCFF0108680002081C000208F0420020D3
:103F2000EC420020E84200200C4500200D45002016
:103F300010450020144500200843002009430020BC
:103F40001A450020FC42002090F827300B4A52F816
:103F500033204AB1C26000220261084A52F833108D
:103F6000086142F833007047C2600261034A42F8B8
:103F7000330002EBC3035860704700BF0C430020BE
:103F800090F827200B4B53F832304BB10023C3601D
:103F9000084B03EBC2035A680261D0605860704757
:103FA000C3600361034B43F8320003EBC203586064
:103FB000704700BF0C43002010B5044690F827005E
:103FC00001F026F894F82720054B1B789A4203D07D
:103FD0002046FFF7B9FF10BD2046FFF7D1FFFAE7F3
:103FE0000843002038B50446154690F82630072BC4
:103FF0003FD8DFE803F01818040418182222002321
:104000000366A0F86430FFF768FE94F82630032BAF
:104010000AD02046FFF7D0FF002384F8263084F82A
:10402000255084F8243038BD04F1440004F0A8FA87
:104030000028EED0FEF7EFFEEBE700230366A0F8C2
:104040006430FFF74AFE94F82630072B08D004238B
:1040500084F8263084F82550002384F82430E2E7E1
:1040600004F1440004F08CFA0028F0D0FEF7D3FEEF
:10407000EDE7FEF7D0FED6E710B50C4691F8261016
:10408000072907D8072907D8DFE801F01E1E09090C
:104090001E1E2828FF2917D0FEF7BDFE14E0226659
:1040A000A4F8643010B12046FFF717FE94F82630CC
:1040B000032B0AD02046FFF77FFF002384F8263029
:1040C00084F8253084F8243010BD04F1440004F055
:1040D00057FA0028EED0FEF79EFEEBE72266A4F822
:1040E000643010B12046FFF7F8FD94F82630072B16
:1040F00008D0042384F82630002384F8253084F87F
:104100002430E1E704F1440004F03AFA0028F0D04A
:10411000FEF781FEEDE770B50C46FEF7D8F80546D0
:1041200094F82630013B062B4DD8DFE803F0464CCF
:10413000044C524C040094F82430042B2FD0002659
:1041400000232366A4F864302046FFF7C6FD94F8E8
:104150002630032B26D0072B2BD0032384F82530C1
:10416000002384F8243076B396F8273096F8282078
:10417000934228D094F82720934224D1304600F06F
:104180006BFD96F82810814228BF0146C9B296F807
:1041900027308B4217D0304601F0FEFA13E0236A35
:1041A0001E69CDE72046FFF707FF002384F826307D
:1041B000D3E7042384F82630CFE7002384F82630A1
:1041C0002046FFF7F9FE2846FEF787F8FFF706FCC2
:1041D00070BD042384F82630F5E7036842689342F3
:1041E00015D0D9688A420AD010B400240C61DC6072
:1041F0001A61D360016043605DF8044B70471A6137
:104200000021D9601161D36002604360704770473C
:1042100010B5044690F827100269C36832B1D36024
:10422000B3B11A6100232361E36010BD2BB10022FA
:104230001A610A4A42F83130F4E7084B43F831205A
:1042400003EBC1035A6090F8270000F0F9FEE9E79C
:10425000024B03EBC1014A60E4E700BF0C430020BE
:1042600070B582B0044639B9022380F82630204662
:10427000FFF7CEFF02B070BD0D46002604F0C8FA6D
:10428000A5FB00010D4B1A68801841F100010138AF
:10429000334641F1FF311AF0B9F801460196009614
:1042A0002346074A04F1440004F0EEF918B9032349
:1042B00084F82630DBE7FEF7AEFDF8E7E4420020A5
:1042C0001741000810B504460B4B186880F82410FD
:1042D000002380F825301146FFF7C2FF34B1064BAA
:1042E00019680C62201DFFF7D4FC10BD024B1B683F
:1042F00000221A62F9E700BF104500202DE9F041C5
:10430000044616461D465BB1FDF7EAFF58B120236F
:104310002B70174B6B605523AB60164BEB60FEE7C1
:10432000FEF779FDF0E7CCB1FDF7D1FF804600271D
:1043300027606760A760E7600F4B2360E660201D81
:10434000FFF7A3FC4046FDF7C8FF2F70084B6B60DA
:104350007023AB60074BEB60BDE8F0810A232B7044
:10436000034B6B605823AB60024BEB60FEE700BF72
:1043700070000208C8000208464C414710B5064CC0
:1043800024686167A4F87C200022A2671A460121F4
:10439000FFF798FF10BD00BF104500202DE9F04F3A
:1043A00083B006468A4600921D460D9C002C4BD0D9
:1043B0002FB2002F4BDA002F57DAA04B93F8008072
:1043C000B8F1010F5FD1002E6CD06B1E9BB2012B98
:1043D00072D9042D70D0082D6ED040F201139D4289
:1043E0006AD0B5F5817F67D0B5F5827F64D0B5F529
:1043F000847F61D048F201039D425DD048F2020300
:104400009D4259D048F204039D4255D048F208031A
:104410009D4251D048F201139D424DD048F2021303
:104420009D4249D048F204139D4245D048F20813FA
:104430009D4241D008232370814B63604FF4A373E6
:10444000A360804BE360FEE7FEF7E5FCB0E7FDF715
:1044500047FF0028AFD020232370794B636040F2E0
:104460003513A360774BE360FEE7FDF743FF0028B9
:10447000A3D01F232370724B636040F23913A360F3
:10448000704BE360FEE7022323706D4B63604FF4D3
:104490009F73A3606B4BE3604FF00009484603B085
:1044A000BDE8F08F0A232370654B636040F243132D
:1044B000A360644BE360FEE73268634B9A4209D025
:1044C0000C2323705E4B63604FF4AC73A3605D4BB1
:1044D000E360FEE715F4807F01D14FF000080C9BEC
:1044E00013B100230C9A136005F00F0BFDF7EFFEDC
:1044F0000190BBF1040F19D0BBF1080F63D00198F4
:10450000FDF7EBFEFEF787FCFFF768FAFDF7DFFE2D
:1045100005464E4B1B6893F82530032B00F2F180C3
:10452000DFE813F0A500C500E300D100F36803EA5B
:104530000A093AEA03020FD0002F26DB444B1B780E
:10454000002B31D1009B2A4651463046FFF716FF1B
:104550000198FDF7C2FED7E7B8F1010F11D03B4B30
:104560001B680BB1C3F878900198FDF7B6FE0023E5
:104570002370334B63604FF4BB73A360314BE36034
:104580008CE723EA0903F360E9E70198FDF7A5FE4C
:104590001D2323702A4B636040F27D13A360294BD7
:1045A000E3604FF0000979E70198FDF796FE2D23AF
:1045B0002370234B63604FF4C273A360214BE3600D
:1045C0004FF000096AE7F36813EA0A090FD1002FD8
:1045D00026DB1F4B1B78002B3CD1009B2A46514603
:1045E0003046FFF7CBFE0198FDF777FE8CE7B8F178
:1045F000010F11D0154B1B680BB1C3F878900198CF
:10460000FDF76BFE002323700D4B63604FF4D173F5
:10461000A3600C4BE36041E723EA0903F360E9E799
:104620000198FDF75AFE1D232370054B636040F28D
:10463000A913A360034BE36030E700BF0C450020E3
:1046400070000208BC000208464C4147104500209B
:104650000D4500200198FDF740FE2D232370354BBA
:1046600063604FF4D873A360334BE36016E7002315
:104670002370304B636040F22D23A3602E4BE36028
:104680002378002B53D12D4B1B68D3F87890B8F1C9
:10469000010F3BD02846FDF720FE00232370254B59
:1046A000636040F26F23A360234BE360F6E6FDF7FF
:1046B00014FE212323701F4B63604FF40E73A3601D
:1046C0001D4BE360DCE70C9B13B100230C9A1360D5
:1046D0002846FDF702FE22232370164B636040F24A
:1046E0004123A360144BE360CAE7FDF7F6FD3123D5
:1046F0002370104B63604FF41373A3600E4BE360A1
:10470000BEE7FDF7EAFDFEF786FBB9E7BBF1040F54
:1047100002D0BBF1080F04D1F36823EA0903F36068
:10472000B8E72846FDF7D9FDFEF775FBB2E74FF075
:104730000009B3E670000208BC0002081045002022
:1047400010B504468167002380F8253080F82430B6
:1047500090F82630072B1DD8DFE803F00C0C04047A
:104760000C0C1818032B09D02046FFF725FC00235A
:1047700084F826302046FFF7B0FA10BD443003F02D
:10478000FFFE0028F0D0FEF746FBEDE7042380F89B
:104790002630EFE7FEF73FFBECE700002DE9F041A4
:1047A00005460F4616461C4683B1534B1B78012B1A
:1047B0000FD002232370514B636040F23233A36069
:1047C0004F4BE36000252846BDE8F081FEF723FB50
:1047D000EBE795B1012E1AD9B6F5004F17D048F284
:1047E00001039E4213D008232370444B636040F2C0
:1047F0003A33A360424BE360FEE70A2323703F4B4A
:10480000636040F23733A3603D4BE360FEE72A6804
:104810003C4B9A4209D00C232370384B63604FF411
:104820005073A360364BE360FEE7FDF750FD804612
:10483000B6F5004F12D007D886B1012E08D1EB682B
:1048400023EA0703EB600CE048F201039E42F6D036
:104850004046FDF742FDFEF7DEFA02E0EB683B431F
:10486000EB606868A0B94046FDF737FD0023237070
:10487000224B636040F26233A360214BE360ED683A
:10488000A1E7EA68436F02EA0301934310D0384678
:10489000D0B18769B0F87C3003F00F03042BF0D05F
:1048A000082B09D04046FDF718FDFEF7B4FAEEE7F5
:1048B0000022FFF745FFEAE7EB68416F1940E6D0B9
:1048C0000022FFF73DFFE2E74046FDF706FD16F444
:1048D000004F0ED0FDF7FBFCED68FDF7FEFC00235A
:1048E0002370064B636040F2A333A360044BE36084
:1048F00069E7FFF773F8EDE70C4500207000020848
:10490000B0000208464C414710B4164B1B6803F137
:104910000C01154AB2F800C00CF1FF3C1FFA8CFCE8
:10492000002207E0196000245C601C810C330C310C
:10493000013292B26245F5D300221A605A601A81A0
:104940000A4B084909681960074909889980DA8083
:104950000270074B43605D238360064BC3605DF8C4
:10496000044B7047D8420020DC4200200043002066
:10497000D800020818010208F8B5044615465AB1D5
:10498000FDF7AEFC58B120232B70174B6B60522300
:10499000AB60164BEB60FEE7FEF73DFAF0E7D4B1F3
:1049A000FDF795FC0746002626606660A660E66077
:1049B0002661666120460E4B40F8043BFFF765F91F
:1049C0003846FDF78AFC2E70074B6B606C23AB609A
:1049D000064BEB60F8BD0A232B70034B6B6055232D
:1049E000AB60024BEB60FEE7280102088C01020875
:1049F0004D55545808B5054B03600023C36003614F
:104A000003750430FFF741F908BD00BF4E4F4E4516
:104A1000C36ACB60C16270472DE9F04105460F467D
:104A20001646069C64B1FDF75BFC60B12023237041
:104A30007E4B636040F23313A3607D4BE360FEE77F
:104A4000FEF7E9F9EFE76DB1B6B1B6F5004F13D057
:104A500008232370754B636040F23913A360744BD5
:104A6000E360FEE70A232370704B63604FF49B738F
:104A7000A3606F4BE360FEE72A686E4B9A4209D051
:104A80000C232370694B636040F23D13A360684BB5
:104A9000E360FEE736B2002E0EDA674B1B78012B7F
:104AA00018D002232370614B636040F24513A3606A
:104AB0005F4BE360BDE8F081FDF71CFC0028ECD003
:104AC0001F232370594B63604FF4A073A360584BAE
:104AD000E360FEE7FDF7FBFB80462B7D3BB32869D7
:104AE000564A1268904237D0002E53DB544B1B7845
:104AF000002B5CD190F8273092F827108B4263D8B6
:104B00003A4604212846FFF7DDFB4046FDF7E5FB6A
:104B1000FEF764FFFDF7DBFB0546484B1B6893F887
:104B20002530032B7ED8DFE803F0525F7369434BD7
:104B30001868286101232B752946FFF769FF404655
:104B4000FDF7CBFB00232370384B63604FF4AA734F
:104B5000A360374BE360ADE7FF2B0ED001332B751D
:104B60004046FDF7BAFB23232370304B636040F2CD
:104B70006913A3602E4BE3609CE74046FDF7ADFB55
:104B80001E232370294B636040F25D13A360284B02
:104B9000E3608FE74046FDF7A0FB1D232370234B06
:104BA00063604FF4BB73A360214BE36082E7404630
:104BB000FDF793FB2D2323701C4B63604FF4C173EF
:104BC000A3601B4BE36075E700F0E6FD98E7002368
:104BD0002370164B63604FF4D073A360144BE360F3
:104BE0002846FDF77AFB65E7212323700F4B6360AE
:104BF0004FF4D573A3600E4BE360F1E722232370DB
:104C00000A4B63604FF4DA73A360094BE360E7E794
:104C100031232370054B63604FF4DF73A360044BB3
:104C2000E360DDE7FEF7F7F8DAE700BF28010208E6
:104C3000740102084D5554580C45002010450020C1
:104C40000D4500202C3001E003F10C0003688B427D
:104C5000FAD1DB680360704700F12C033F2000E0CD
:104C60000C331B6843B15A68002AF9D092F8272008
:104C70009042F5D91046F3E7704700002DE9F8435C
:104C800005460E4614465AB1FDF72AFB58B12023BB
:104C900023704B4B6360A523A3604A4BE360FEE7A0
:104CA000FEF7B9F8F0E765B12A68474B9A4211D090
:104CB0000C232370424B6360AB23A360414BE36042
:104CC000FEE70A2323703E4B6360A823A3603D4B9D
:104CD000E360FEE73D4B1B78012B0BD002232370D2
:104CE000374B6360AF23A360364BE360002630464A
:104CF000BDE8F883FDF7EBFA804666B1012E2BD0B4
:104D0000FDF7EBFA082323702D4B6360F323A360B8
:104D10002C4BE360FEE76B6853B1FDF7DEFA2E2300
:104D20002370274B6360C623A360264BE360DEE756
:104D3000286910B12946FFF785FF2846FFF75AFE7C
:104D40004046FDF7CAFA002323701D4B6360C3235E
:104D5000A3601C4BE360CAE70026686830B10222FA
:104D60000021FFF73FF90136B6B2F6E72F691FB110
:104D700029463846FFF766FF2FB197F8273097F896
:104D800028904B4510D12846FFF734FE4046FDF7EA
:104D9000A4FAFEF723FE00232370094B6360EE2381
:104DA000A360084BE360A2E73846FFF755FF49468A
:104DB000814528BF0146C9B2384600F0EDFCE2E764
:104DC00028010208800102084D5554580C45002066
:104DD0002DE9F04782B005460E46144662B1FDF754
:104DE0007FFA60B120232370624B636040F2572347
:104DF000A360614BE360FEE7FEF70DF8EFE76DB1EE
:104E0000B6B1B6F5004F13D008232370594B636039
:104E100040F25D23A360584BE360FEE70A23237052
:104E2000544B636040F25A23A360534BE360FEE7A8
:104E30002A68524B9A4209D00C2323704D4B636071
:104E400040F26123A3604C4BE360FEE74C4B1B78C0
:104E5000012B0BD002232370464B636040F2652385
:104E6000A360454BE36002B0BDE8F087FDF72FFA81
:104E700080462B69434A1068834233D12B7D013B26
:104E8000DBB22B75002B3AD12946FFF7DBFE6B68AE
:104E9000002B41D03B4BD3F8009099F827A099F80C
:104EA0002870BA4547D16F682F6101232B752946B9
:104EB0003846FFF7ADFD00220092134639462846DA
:104EC000FFF7DAF84046FDF708FA16F4004F4ED027
:104ED00000232370274B636040F2AD23A360264B71
:104EE000E360C0E74046FDF7F8F91B232370214B30
:104EF00063604FF41B73A3601F4BE360B3E740464E
:104F0000FDF7EBF9232323701A4B636040F27D23F6
:104F1000A360194BE360A6E700262E612E7540467C
:104F2000FDF7DBF92670134B636040F28A23A36020
:104F3000114BE36097E74846FFF78EFE874228BF94
:104F40000746FFB2BA45AED24846FFF761F9DFF82F
:104F50003490D9F8003083F82770384600F058F8BC
:104F6000D9F80000FFF70CF8074B1F709BE7FEF71E
:104F700035FDADE728010208680102084D55545877
:104F80000C4500201045002008430020F0B583B0F8
:104F90000646C46A03E00023237523613C46B4B18E
:104FA000E76821463046FFF74DFE6568002DF2D0D8
:104FB00026610123237521462846FFF729FD00229B
:104FC0000092134629462046FFF756F8E6E703B05D
:104FD000F0BD0000002304E0034A002142F8231042
:104FE0000133012BF8D97047F442002008B5074B74
:104FF000186830B9586800F0DFFEC0B22030C0B287
:1050000008BD00F0D9FEC0B2FAE700BFF4420020AC
:105010001F2808D84FF0004323FA00F0074A13680E
:10502000034313607047C0F13F00012303FA00F00F
:10503000024A536803435360704700BFF4420020A4
:105040001F2809D84FF0004323FA00F0084A1368DC
:1050500023EA000313607047C0F13F00012303FA05
:1050600000F0034A536823EA00035360704700BF0F
:10507000F44200202DE9F041044616461D465BB17E
:10508000FDF72EF958B120232B70174B6B60582376
:10509000AB60164BEB60FEE7FDF7BDFEF0E7CCB171
:1050A000FDF715F98046002727606760A760E76075
:1050B0000F4B2360E660201DFEF7E7FD4046FDF73D
:1050C0000CF92F70084B6B607323AB60074BEB60E0
:1050D000BDE8F0810A232B70034B6B605B23AB6050
:1050E000024BEB60FEE700BF9C01020800020208D1
:1050F00053454D412DE9F843064688461546089C20
:105100008CB12FB2002F11DAF6B13DB3B5F5004FD7
:1051100024D008232370654B636040F22913A360F9
:10512000634BE360FEE7FDF776FEEAE7FDF7D8F8AC
:105130000028E9D0202323705C4B63604FF4917307
:10514000A3605B4BE360FEE70A232370574B636069
:105150004FF49373A360564BE360FEE73268554B00
:105160009A4209D00C232370504B636040F22D13F8
:10517000A3604F4BE360FEE7002F10DA4E4B1B7825
:10518000012B1AD002232370484B636040F2351381
:10519000A360474BE36000252846BDE8F883FDF790
:1051A000A9F80028EAD01F232370404B63604FF416
:1051B0009873A3603E4BE360FEE7FDF788F88146F5
:1051C000F568E5B9002F28DB3C4B1B78002B30D16C
:1051D000424606213046FFF775F84846FDF77DF850
:1051E000FEF7FCFBFDF773F80746354B1B6893F899
:1051F0002530032B55D8DFE803F028364A40013D1F
:10520000F560FDF76AF800232370284B636040F2D5
:105210004313A360264BE360BEE7FDF75EF81D2352
:105220002370224B636040F25113A360204BE36074
:10523000B2E7FDF752F82D2323701C4B636040F258
:105240005D13A3601A4BE360A6E700232370174B9E
:1052500063604FF4BA73A360154BE360F56838469A
:10526000FDF73BF898E721232370104B63604FF460
:10527000BF73A3600E4BE360F0E7222323700B4B58
:1052800063604FF4C473A360094BE360E6E7312326
:105290002370064B63604FF4C973A360044BE36053
:1052A000DCE7FDF71AF8FDF7B6FDD7E79C01020829
:1052B000E801020853454D410C4500200D450020F2
:1052C000104500202DE9F04182B004460E461546F7
:1052D000A2B1B4B1FEB1B6F5007F1CD0B6F5004F57
:1052E00019D0B6F5024F16D008232B703C4B6B60DB
:1052F00040F22923AB603B4BEB60FEE7FDF78BFDF3
:10530000E7E70A232B70364B6B6040F22623AB6035
:10531000344BEB60FEE72268334B9A4209D00C23F2
:105320002B702F4B6B6040F22F23AB602D4BEB604B
:10533000FEE72E4B1B78012B0DD002232B70284B40
:105340006B6040F23323AB60264BEB6000263046A7
:1053500002B0BDE8F081FCF7BAFF8046616861B138
:1053600051B38F690022009213462046FEF784FE57
:1053700016F4007F20D03946F2E7E668B6F1FF3F29
:105380000DD00136E660FCF7A8FF00232B70144B0C
:105390006B6040F24F23AB60124BEB60D7E7FCF73A
:1053A0009CFF1E232B700E4B6B604FF41173AB6090
:1053B0000C4BEB600026CAE74046FCF78EFF16F464
:1053C000004F09D000262E70054B6B6040F265231C
:1053D000AB60044BEB60BAE7FEF700FBF2E700BFFF
:1053E0009C010208DC01020853454D410C45002098
:1053F00008B5044B03600023C3600430FEF745FC8E
:1054000008BD00BF4E4F4E45F8B505460E46144642
:105410005AB1FCF765FF58B1202323703B4B636002
:10542000A923A3603A4BE360FEE7FDF7F4FCF0E745
:1054300065B12A68374B9A4211D00C232370334B45
:105440006360AF23A360324BE360FEE70A2323705F
:105450002E4B6360AC23A3602D4BE360FEE72E4B25
:105460001B78012B0AD002232370284B6360B323DF
:10547000A360274BE36000263046F8BDFCF727FF0A
:10548000074666B1012E26D0FCF727FF08232370BC
:105490001E4B6360E523A3601D4BE360FEE76B6872
:1054A00053B1FCF71AFF2E232370184B6360C723F8
:1054B000A360174BE360DFE72846FFF799FF384604
:1054C000FCF70BFF00232370104B6360C423A36021
:1054D0000F4BE360D0E70026686830B1022200215C
:1054E000FEF780FD0136B6B2F6E72846FFF780FFEB
:1054F0003846FCF7F2FEFEF771FA00232370034BE7
:105500006360E023A360024BE360B5E79C010208FF
:10551000F401020853454D410C45002070B5064684
:105520000C4615465AB1022C0CD908232B70104B8F
:105530006B6040F2FD33AB600E4BEB60FEE7FDF7B6
:105540006AFCF0E7FCF7C3FE7EB11A3456F824403B
:10555000FCF7C3FE00232B70054B6B6040F2054344
:10556000AB60044BEB60204670BD034B1E68ECE75C
:105570000C02020858020208104500200023054AC8
:1055800013800370044B436040F61F038360034B9A
:10559000C3607047184500200C0202084C02020844
:1055A00010B504469422002119F03FF9002306E0CB
:1055B00003F11A02002144F822100133DBB2022B5E
:1055C000F6D9402384F8273084F8283010BD000035
:1055D0002DE9F04782B0054617461E469DF828A0E3
:1055E000BDF84490129C5CB1FCF77AFE58B12023C0
:1055F0002370644B6360F023A360634BE360FEE7BA
:10560000FDF709FCF0E785B1C7B10B9BFBB15F4B20
:105610001B680D9A934223D908232370594B63606A
:10562000FC23A360584BE360FEE70A232370554B2D
:105630006360F323A360544BE360FEE70A23237007
:10564000504B6360F623A3604F4BE360FEE70A23F1
:1056500023704C4B6360F923A3604B4BE360FEE780
:105660000D9B0C9A934208D808232370454B636026
:10567000FF23A360444BE360FEE7BAF13F0F09D973
:10568000082323703F4B63604FF48173A3603E4B4C
:10569000E360FEE72846FFF783FF00232370394BC2
:1056A000636040F20B13A360374BE36019F0030F04
:1056B00002D019F0020F2CD10C9B23F007080B9B92
:1056C00003EB8808CDF804900D9B009343460B9A9A
:1056D0003146384600F012FB06460B9B83421BD82E
:1056E00085F827A085F828A02E60C5F80880109BB3
:1056F0006B600B9B6B610D9B2B63A5F834900023B3
:105700001DE0002142F8041B01330D998B42F8D3B0
:10571000D2E70B9A0023F8E732232370194B63601A
:105720004FF49473A360184BE360FDF774FBD7E765
:1057300003F11A02002145F822100133DBB2022BDB
:10574000F6D9284600F0D6FAFCF7C1FD044695F8D4
:105750002700FFF75DFC2846FEF712FC0C4A138871
:10576000013313800B4B1B78012B05D02046FCF72F
:10577000B4FD02B0BDE8F0872046FCF7AEFDFEF7B1
:105780002DF9F6E70C02020874020208D8FF01089E
:10579000184500200C45002070B504460D4694F8CD
:1057A000276094F82630072B07D8072B61D8DFE84D
:1057B00003F0071B1E1E1B1B1E1EFF2B59D170BDA5
:1057C0002046FEF725FD84F827502846FFF720FCE9
:1057D000294B1B68A34203D02046FEF7D1FBEEE71E
:1057E0002046FEF7B1FBEAE784F82750E7E784F8A4
:1057F000275094F82430013B072B37D801A252F8E8
:1058000023F000BF25580008BF5700086D58000856
:105810002D5800082558000825580008BF570008D3
:10582000255800082046FEF773FAC8E72046FEF721
:105830006FFA236A1C69B54206D294F82730AB424E
:10584000BDD9002CABD1BAE794F82730B342F8D1D8
:105850002046FFF701FA94F82810814228BF01463C
:10586000CDB294F82730AB42EBD1A8E7FDF7D3FADD
:10587000A5E7FDF7D0FAA2E7104500202DE9F04199
:1058800005460C4661B1FCF72BFD60B12023237067
:105890005D4B63604FF4DA73A3605C4BE360FEE73B
:1058A000FDF7B9FAEFE75A4B1B78012B0AD0022318
:1058B0002370554B63604FF4DC73A360534BE3607C
:1058C000BDE8F0817DB1FCF702FD064695F8263073
:1058D000072B0FD8072B00F29180DFE803F01A3E68
:1058E00047471D3E4747FCF7F2FC4A4B1D68FCF753
:1058F000F4FCE8E7FF2B40F08180FCF7EEFC1F236F
:105900002370414B636040F20723A3603F4BE36089
:10591000D6E72846FEF77CFCEB6A13B12846FFF772
:1059200035FB284600F0E7F93B4A1388013B13801A
:105930002846FFF735FEFF2385F826303046FCF772
:10594000CCFC00232370304B636040F23123A36012
:105950002E4BE360FEF742F8B2E705F1440002F097
:105960000FFE0028D8D0FDF756FAD5E795F8243079
:10597000082B40D8DFE803F00805083F17050508A5
:1059800005002846FEF7A9F995F82630032B01D02B
:10599000072BC1D105F1440002F0F2FD0028BBD075
:1059A000FDF739FAB8E72B6A1F6997F82780284670
:1059B000FEF793F997F8273097F82820934203D001
:1059C00095F8272093420BD0002385F8243097F8D0
:1059D00027304345D8D041463846FFF7DDFED3E7B0
:1059E0003846FFF739F997F82830834228BF034635
:1059F0005FFA83F8E8E7FDF70EFAC5E73046FCF7F3
:105A00006CFCFDF708FA5BE70C020208680202086A
:105A10000C450020104500201845002000B585B039
:105A2000054B186800F068F969460020FFF726FF6B
:105A300005B05DF804FB00BF104500200023037093
:105A4000044B436041238360034BC360034B1868DE
:105A5000704700BF84020208D0020208E44200201E
:105A6000F0B583B006460D4614465AB1FCF738FC33
:105A700058B120232370774B63607123A360764B6A
:105A8000E360FEE7FDF7C7F9F0E7FCF733FC40B150
:105A90001F2323706F4B63607423A3606E4BE3601E
:105AA000FEE76E4B1B78012B09D002232370694B54
:105AB00063607823A360684BE36003B0F0BD684B7C
:105AC0001B7883B9674B1B68B3B1F5B1022D1CD0AD
:105AD000082D1AD0082323705E4B63608723A360D0
